:1000000080317E2B000021000F1222000F162100EC
:100010008F1222008F1621000F1322000F132100D0
:100020008F1120008F11080021000F1122000F15E1
:1000300021008F1022008F1021008E1020008E10C2
:10004000080021000F1222000F1621008F1222003B
:100050008F1221000F1322000F1721008F11200093
:100060008F15080021000F1122000F1121008F10A1
:1000700022008F1421008E1020008E140800210011
:10008000390DF700F70DFC30F7051D0883397704AB
:100090009D000F30F8001F08F03978049F001A30D7
:1000A000F700F70B512800009D149D1855281C08D7
:1000B000BB001B08BA003B0CFA003A0CF900FA0C22
:1000C000F90CFA0CF90CFA0CF90C7908BC003C0894
:1000D000F800200008000D302100B90020003F206A
:1000E0007808DC000A302100B90020003F207808A1
:1000F000D900F008031D8A285C08B03C0318882842
:100100005908933C031888280F140130DD008A2811
:100110000F10DD0108008F1D92288E1892281030D4
:10012000DE00A1288F1D99288E1C99281130DE0031
:10013000A1288F19A0288E1CA0280130DE00A1283C
:10014000DE01080021000E1122000E11240011080A
:1001500021003F0824009100140C031CAC28110856
:10016000F800110821003E0824009100140C031C23
:10017000B6281108F70021000E1122000E152000EC
:10018000080021003808BF003708BE002000A22068
:100190002100BF010130BE002000A220780821000C
:1001A000BA007708B900BB003A080F39BC001A3012
:1001B000F700F70BD92800003B08F8003C08F900CD
:1001C0002000080083302100B8003030B700200044
:1001D000C1207908AD007808AC002D082100B800D6
:1001E000B90138082000B9002C08BA008730210076
:1001F000B8003030B7002000C1207908B10078087D
:10020000B00031082100B800B90138082000BB0057
:100210003008BC008B302100B8003030B70020001F
:10022000C1207908B5007808B40035082100B8006D
:10023000B90138082000BD003408BE008F3021000D
:10024000B8003030B7002000C1207908AF0078082E
:10025000AE002F082100B800B90138082000BF0007
:100260002E08C00097302100B8003030B7002000C1
:10027000C1207908B7007808B60037082100B80017
:10028000B90138082000C1003608C2009F302100A3
:10029000B8003030B7002000C1207908B3007808DA
:1002A000B20033082100B800B90138082000C300AB
:1002B0003208C40008000E1121003808BF003708BA
:1002C000BE002000A2202100BF010130BE0020009E
:1002D000A22078082100BA007708B900BB003A08CC
:1002E0000F39BC0020000E151A30F700F70B7629E5
:1002F000000021003B08F8003C08F900200008003D
:10030000A3302100B8003030B70020005B2179080D
:10031000A3007808A20023082100B800B90138081A
:100320002000C5002208C600A7302100B8003030E8
:10033000B70020005B217908A7007808A6002708ED
:100340002100B800B90138082000C7002608C800FD
:10035000AB302100B8003030B70020005B217908B5
:10036000AB007808AA002B082100B800B9013808B2
:100370002000C9002A08CA00AF302100B800303080
:10038000B70020005B217908A5007808A4002508A3
:100390002100B800B90138082000CB002408CC00A7
:1003A000B7302100B8003030B70020005B21790859
:1003B000A9007808A80029082100B800B901380868
:1003C0002000CD002808CE000800203085006930CC
:1003D000840000080319FA290530F800F701F70B2B
:1003E000EF29F80BEE292E30F700F70BF529F82945
:1003F000800BEC2908002100B90120003F2078087B
:10040000CF0001302100B90020003F207808D00043
:1004100002302100B90020003F207808D1000330CD
:100420002100B90020003F207808D20005302100CB
:10043000B90020003F207808D30006302100B90021
:1004400020003F207808D40008302100B9002000A7
:100450003F207808D50009302100B90020003F2056
:100460007808D6002100B7013708633C031C562AE0
:100470002C30F8001D08833978049D000F30F800F7
:100480001F08F03978049F000D30F700F70B462A5B
:100490009D149D18492A1B08A9071C08AA3D013074
:1004A000B9002000E5212100B70A342A2A08BA0041
:1004B0002908B900BC016430BB00F801F901F7015B
:1004C000FA013C08031D672A3B080319812A1030F2
:1004D000BD000310B90DBA0DF70DFA0D3C087A02F4
:1004E000031D742A3B087702031C7D2A3B08F70290
:1004F000031CFA033C08FA020314F80DF90DBD0BB6
:10050000692A7908AA007808A900BA012A082000F7
:10051000D700210029082000D8002100AA01A90144
:100520000A30B90020003F207808D9002100B80126
:100530003808633C031CBD2A3030F8001D0883399D
:1005400078049D000F30F8001F08F03978049F00F0
:100550000D30F700F70BAA2A9D149D18AD2A1B0831
:10056000AB071C08AC3D0030AD3DAE3D0130B900DD
:100570002000E5212100B80A982A83102E08BC002B
:100580002D08BB002C08BA002B08B900C001BF0120
:10059000BE016430BD008318D12A2030850073303D
:1005A0008400F701F801F901FA01C301C401C50192
:1005B000C60140083F043E043D0403190F2B2030C0
:1005C000C7000310B90DBA0DBB0DBC0DC30DC40D92
:1005D000C50DC60D40084602031DF82A3F08450216
:1005E000031DF82A3E084402031DF82A3D08430271
:1005F000031C092B3D08C3023E08031C3E0FC40226
:100600003F08031C3F0FC5024008031C400FC602F1
:100610000314F70DF80DF90DFA0DC70BE12A430885
:1006200080004408813F4508823F4608833F7A089E
:10063000AE007908AD007808AC007708AB00BD01CA
:100640002C082000DA0021002B082000DB0021000C
:10065000AE01AD01AC01AB010D30B90020003F206F
:100660007808DC000800AA30DF0001302100B70064
:100670003708083C031C582B3F303707F800203060
:10068000FA000318FA0A7808BA007A08BB00183092
:1006900037078400203085000318850A0008BC0055
:1006A0003B0885003A0884003C088000B70A382BD4
:1006B0000B30B80038081B3C031C7B2B023038027F
:1006C0003F3EF8002030FA000318FA0A7808BA0012
:1006D0007A08BB00183038078400203085000318E2
:1006E000850A0008BC003B0885003A0884003C08E5
:1006F0008000B80A5A2B803120002F2C7A3021003C
:1007000099002000A001A10124009512403094001E
:10071000FF3092003A30950022009D129D111D126B
:1007200021008E120E1622000E1521000E118E11C0
:10073000AA01A901AE01AD01AC01AB01F00123009A
:100740008C018D018E018F01900122009201910197
:10075000B22B4134603418340034083460345F34D0
:100760000034003403308500A9308400851712005E
:10077000F700003A0319CC2B1200F800F81BC42B29
:100780003F39870012008600781B1200781F120084
:100790001E00F70BC62BB72BF00133302000B8003A
:1007A00021008F1322008F1721000F1022000F103D
:1007B0000530230091009513151413082000A100A3
:1007C0000A30230091009513151413082000A0008F
:1007D0002108083C0319F32B2008053C0319F32BCF
:1007E00003201420F52B2120322021001E169E16F6
:1007F0001E139E171D141E109E101E112F30230055
:100800008C00073090003F308D0002308F002100B7
:100810009116C0308B0420006B208B2021002F0804
:10082000613C031D202C2000E2208021FB212100BF
:10083000AF010A30B9002000E5216B208B20210098
:100840002F08693C031D302C2000E2208021FB2171
:100850002100AF010A30B9002000E521332B21002F
:100860002F08173C031D6A2CAF010A30B900200085
:10087000E521212032200B08F7008B1305302300DF
:100880009100083093009513151555309600AA3045
:100890009600951495184A2C151177088B0408308A
:1008A0002000A1000B08F7008B130A3023009100F1
:1008B000053093009513151555309600AA30960013
:1008C00095149518612C151177088B0405302000BC
:1008D000A00021002F08183C031DA42CAF010A30F2
:1008E000B9002000E521032014200B08F7008B132A
:1008F00005302300910001309300951315155530F4
:100900009600AA30960095149518842C1511770836
:100910008B0401302000A1000B08F7008B130A3074
:100920002300910001309300951315155530960062
:10093000AA309600951495189B2C151177088B04F6
:1009400001302000A00021002F0BB02CAF010A3095
:10095000B9002000E5210F140130DD00F000210076
:100960002F08023C031DBE2CAF010A30B900200045
:10097000E5210F10DD010130F00021002F08033CBC
:10098000031DC92CAF010A30B9002000E521F00198
:0609900021000B2C6300A6
:020000040001F9
:04000E00C43FFF1ECE
:00000001FF
;PIC16F1789
;CRC=13CF  CREATED="24-9-21 18:35"
