:060000008031B02C00006D
:0800080083018031200077081C
:10001000A0007808A1007908A2007A08A3008B1E2E
:1000200013280B192328850191308400001C1A28FD
:10003000111825282008F7002108F8002208F900E7
:100040002308FA0009008031272880313428150858
:10005000031D31280D150630F700F70B2D28000081
:100060000D110B1180311A289601803097009601EE
:100070000000AA0A0319AB0A25083A3C031C4228CF
:10008000A50A4428A501A60A26083C3C031D4A28C7
:10009000A601A70A2708183C031D5428A701A80A8F
:1000A0000319A90A0130B800111080311A2805304F
:1000B000230091009513151413082000D400083074
:1000C000230091009513151413082000D50054083F
:1000D000BA005508B9000A30230091009513151491
:1000E00013082000D4000B30230091009513151441
:1000F00013082000D5005408BC005508BB000F3081
:10010000230091009513151413082000D40010301B
:10011000230091009513151413082000D5005408EE
:10012000BE005508BD00143023009100951315142E
:1001300013082000D40015302300910095131514E6
:1001400013082000D5005408C0005508BF0019301E
:10015000230091009513151413082000D4001A30C1
:10016000230091009513151413082000D50054089E
:10017000C2005508C1001E302300910095131514CC
:1001800013082000D4001F3023009100951315148C
:1001900013082000D5005408C4005508C3002330BC
:1001A000230091009513151413082000D400243067
:1001B000230091009513151413082000D50054084E
:1001C000C6005508C500283023009100951315146A
:1001D00013082000D4002930230091009513151432
:1001E00013082000D5005408C8005508C7002D305A
:1001F000230091009513151413082000D4002E300D
:10020000230091009513151413082000D5005408FD
:10021000CA005508C9003230230091009513151407
:1002200013082000D40033302300910095131514D7
:1002300013082000D5005408CC005508CB008031AD
:10024000532D2908D400D501D5010B08F7008B13D5
:100250000530230091002000290823009300951306
:10026000151555309600AA30960095149518362924
:10027000151177088B0420002808D400D5010B083D
:10028000F7008B130830230091002000280823007A
:1002900093009513151555309600AA3096009514C5
:1002A00095185029151177088B0420002908D400CF
:1002B000D501D5010B08F7008B130A3023009100FC
:1002C000200029082300930095131515553096003A
:1002D000AA309600951495186B29151177088B0490
:1002E00020002808D400D5010B08F7008B130B3031
:1002F0002300910020002808230093009513151572
:1003000055309600AA309600951495188529151138
:1003100077088B0420002908D400D501D5010B08EB
:10032000F7008B130F3023009100200029082300D1
:1003300093009513151555309600AA309600951424
:100340009518A029151177088B0420002808D400DF
:10035000D5010B08F7008B1310302300910020000B
:100360002808230093009513151555309600AA30E0
:10037000960095149518BA29151177088B0420005A
:100380002908D400D501D5010B08F7008B131430D0
:1003900023009100200029082300930095131515D0
:1003A00055309600AA30960095149518D529151148
:1003B00077088B0420002808D400D5010B08F7002B
:1003C0008B13153023009100200028082300930090
:1003D0009513151555309600AA309600951495186A
:1003E000EF29151177088B0420002908D400D501C6
:1003F000D5010B08F7008B13193023009100200062
:100400002908230093009513151555309600AA303E
:100410009600951495180A2A151177088B04200068
:100420002808D400D5010B08F7008B131A302300DD
:1004300091002000280823009300951315155530CE
:100440009600AA30960095149518242A151177085D
:100450008B0420002908D400D501D5010B08F70032
:100460008B131E30230091002000290823009300E5
:100470009513151555309600AA30960095149518C9
:100480003F2A151177088B0420002808D400D501D5
:100490000B08F7008B131F30230091002000280861
:1004A000230093009513151555309600AA30960039
:1004B00095149518592A151177088B0420002908DE
:1004C000D400D501D5010B08F7008B13233023008E
:1004D000910020002908230093009513151555302D
:1004E0009600AA30960095149518742A151177086D
:1004F0008B0420002808D400D5010B08F7008B13CB
:100500002430230091002000280823009300951335
:10051000151555309600AA309600951495188E2A18
:10052000151177088B0420002908D400D501D501C6
:100530000B08F7008B1328302300910020002908B6
:10054000230093009513151555309600AA30960098
:1005500095149518A92A151177088B0420002808EE
:10056000D400D5010B08F7008B132930230091002C
:100570002000280823009300951315155530960088
:10058000AA30960095149518C32A151177088B0484
:1005900020002908D400D501D5010B08F7008B13E2
:1005A0002D3023009100200029082300930095138B
:1005B000151555309600AA30960095149518DE2A28
:1005C000151177088B0420002808D400D5010B08EA
:1005D000F7008B132E302300910020002808230001
:1005E00093009513151555309600AA309600951472
:1005F0009518F82A151177088B0420002908D400D3
:10060000D501D5010B08F7008B1332302300910080
:1006100020002908230093009513151555309600E6
:10062000AA30960095149518132B151177088B0492
:1006300020002808D400D5010B08F7008B133330B5
:10064000230091002000280823009300951315151E
:1006500055309600AA309600951495182D2B15113B
:1006600077088B0420002908D400D501D5010B0898
:10067000F7008B1305302300910020002908230088
:1006800093009513151555309600AA3096009514D1
:100690009518482B151177088B0420002808D400E2
:1006A000D5010B08F7008B130830230091002000C0
:1006B0002808230093009513151555309600AA308D
:1006C000960095149518622B151177088B0420005D
:1006D00008003A08D5003908D400D601D701D8015E
:1006E0005808093C031CB72B5808D9005908093C85
:1006F000031CA22B590858020319A02B0310580DF4
:10070000193E8400203085000318850A0008DA00AD
:1007100001310008DB003F310310590D193E840000
:10072000203085000318850A01310008FA003F31A6
:1007300000085A02031DA02B7A085B020319D60A8F
:10074000D90A762B57085602031CB42B0310580DF8
:10075000193E8400203085000318850A0008D40063
:10076000013FD5005608D700D601D80A702B54088F
:10077000F8005508F9008031BC2D203085003D304F
:10078000840000080319D22B0530F800F701F70B9D
:10079000C72BF80BC62B2E30F700F70BCD2BD02B29
:1007A000800BC42B08000F138F170E168F148F1594
:1007B0000F140F158E150E118E128031C82D540D89
:1007C000F700F70DFC30F70521001D088339770489
:1007D0009D000F30F8001F08F03978049F001A3090
:1007E000F700F70BF12B00009D149D18F52B1C084A
:1007F0002000D5005508F8000800D401DF23780850
:10080000B2000130D400DF237808B3000230D400F6
:10081000DF237808B4000430D400DF237808B50063
:100820000330D400DF237808B6008031D62D2100B4
:100830008F1620008F1A1A2C0830F700D401F717F2
:100840002F2CF7132F2C03108F1A0314D40C7717A7
:100850002F2C7713F70B232C5408F8003B2C8430F3
:10086000F71B2430F800F80B332C362CF71B212C07
:10087000771B292C232C8031F42D21000F1222000C
:100880000F120830F800442C0000F817572CF8130A
:100890002000D50C220003180F16031C0F12781726
:1008A000572C7813F80B482C552C00000F16843069
:1008B0008400840B592C0000F81B472C781B512C0A
:1008C00020000800DB01DA01D9010130D8005B0803
:1008D0005702031C8D2C031D7D2C5A085602031C45
:1008E0008D2C031D7D2C59085502031C8D2C031DD6
:1008F0007D2C58085402031C8D2C0430DC00FA3087
:10090000DD00BD23DC0B7F2C0130D8070318D90A8A
:100910000319DA0A0319DB0A672C80312B2E0F1317
:100920008F138F100F100E111430D400FA30DD0029
:10093000BD23D40B962C0F178F170E168F148F15FF
:100940000F140E158E1208008F130430D400FA30E5
:10095000DD00BD23D40BA72C8F17AB01AA01080023
:1009600022001D159D142000A40123009F15A03016
:100970009B0001309C00A6309E0090309D0021001D
:100980000F1222000F162000A501A601A701A90140
:10099000A801AB01AA01B80123008C018D018E01D1
:1009A0008F019001220092019101DF2C0B34603401
:1009B0000C340034143460341934003400340430FE
:1009C0008500D630840085171200F700003A03191D
:1009D000F92C1200F800F81BF12C3F3987001200A7
:1009E0008600781B1200781F12001E00F70BF32CF4
:1009F000E42C21000E1120000E1121008E11200088
:100A00008E1121000E1220000E1221008E122000E5
:100A10008E1221000F1020000F1021008F102000D7
:100A20008F1021000F1120000F1121008F112000C5
:100A30008F1121000F1320000F1321008F132000AE
:100A40008F1321000D1120000D1121008D122000A7
:100A50008D1621001E169E161E139E131D141E10A9
:100A60009E101E112F3023008C00033090000030A8
:100A70008D008F0020001110873098009901960199
:100A800080309700960100009815C0308B0421003B
:100A900011148B1691161508C03907389500FF30D0
:100AA0002000950057280530230091009513151458
:100AB00013082000D400083023009100951315146A
:100AC00013082000D5005408D7005508D600560F4B
:100AD0006E2D570F6E2DA901A80121213B08390267
:100AE000031DBB2D3C083A02031DBB2D3D083B02F4
:100AF000031DBB2D3E083C02031DBB2D3F083D02DC
:100B0000031DBB2D40083E02031DBB2D41083F02C3
:100B1000031DBB2D42084002031DBB2D43084102AB
:100B2000031DBB2D44084202031DBB2D4508430293
:100B3000031DBB2D46084402031DBB2D470845027B
:100B4000031DBB2D48084602031DBB2D4908470263
:100B5000031DBB2D4A084802031DBB2D4B0849024B
:100B6000031DBB2D4C084A02031DBB2D3A08A900EA
:100B70003908A800C02D692B7908A9007808A800B9
:100B80000230D400FA30DD00BD23D40BC22DD32BAC
:100B90008E30AC002508AD002608AE002708AF0057
:100BA000D5012908B0002808B100FD2B26081E3CFD
:100BB000031DE02D2708013C031CE02D0F170E1527
:100BC000D001CF01CE01CD01D008031D002ECF08EA
:100BD000031D002ECE08031D002E4D08633C031C90
:100BE000002E8F1AF72D172C7808B700002E013031
:100BF000CD070318CE0A0319CF0A0319D00AE42D32
:100C00003708283C031D1A2EB701AB01AA01D101F8
:100C100051080A3C031C192E0C3051078400203067
:100C200085000318850A0008D400D5003D24D10AA8
:100C3000082E4A2E3708BC3C031D2D2EB701AB01F0
:100C4000AA018E16CB30D5003D24D701D601D5019F
:100C50002D30D400622C8E124A2E3708273C031DFB
:100C6000362EB701AB01AA018F244A2E2B080D3C6A
:100C70000318432EFF3A031D412E2A080F3C031888
:100C8000432EA4244A2E3708EE3C031D4A2EA90108
:100C9000A8012121380B672E21218F10AA30D50001
:100CA0003D242B080D3C03185E2EFF3A031D5C2EDD
:100CB0002A080F3C03185E2EA424622E3708273C16
:100CC00003194E2EB701AB01AA018F24B801C82D1C
:020CD0006300BF
:020000040001F9
:04000E00C239FF1ED6
:00000001FF
;PIC16F1789
;CRC=5AB4  CREATED="24-9-21 16:08"
