:06000000A0310028000001
:0800080083018031200077081C
:10001000A0007808A1007908A2007A08A3002300B4
:1000200011082000A400230012082000A5002300CE
:1000300013082000A600230014082000A700850153
:1000400091308400801E2628911A3F282008F7004E
:100050002108F8002208F9002308FA0024082300E8
:10006000910020002508230092002000260823008C
:10007000930020002708230094000900200080310D
:100080003229AD16AD16AD16AD16AD16542CDF27C0
:10009000CE16AD16AD16AD16AD162D050D00AD166E
:1000A000AD16AD16AD16AD16522CDF27CE16AD1619
:1000B000AD16AD16AD162D050D00C131EB2FF0318B
:1000C0006B3ADB12E42EA01EA01278050D00AD16CF
:1000D000AD16AD16AD16AD16AD16AD16AD16AD1608
:1000E000AD16EE3AED2F6F335F38E33574103D10E7
:1000F000253CAD16AD16AD16AD16AD16AD16AD164A
:10010000AD16AD16AD168A060001AD16AD16AD16CC
:10011000AD16AD16AD16AD16AD16AD16AD16EE3A62
:10012000ED2F6F335F38E33574103D10253CAD166D
:10013000AD16AD16AD16AD16AD16AD16AD16AD16A7
:10014000AD168A060000AD16AD16AD16AD16AD168D
:10015000AD16AD16AD16AD16AD16D030F92FCC37A5
:100160006132DB12EC3ADD16AD16AD16AD16AD16EA
:10017000AD16AD16AD16AD16AD162D050D00C32688
:10018000C42FF0316B3A3A100001C327CD2FD4278A
:10019000DF26C124CE2D2532DD04253C0D050001CE
:1001A000D3224E22DF21CF265F2ACF2FCD20492711
:1001B000DB12E42EA01EA01278050D00733A6139FF
:1001C000F42FF4375F28C121CB22D42FC42757271F
:1001D000CC2741228A060001733A6139F42FF437A3
:1001E0005F18F81831050D0065376410303CB11800
:1001F0008A060000D3224E225F22613AE12FD030DE
:10020000E335653A73103D100D050000C326441018
:10021000F437A036E1346E10D02443006537641003
:10022000D3224E22DF29D521C322D329DF20C325A3
:10023000A8140D05000025003F08F8013E02031830
:1002400024293E08F7003029F7010830C000BE0D10
:10025000F70D3F0877020318F700F80DC00B2729A8
:10026000200008002C302907840020308500031866
:10027000850A911E392923001908800020002908C9
:10028000AA00013029072500BD00BE000F30BF00C5
:1002900020001B217708A900911280312628E23A1C
:1002A00066336539DB12E42EA01EA01278050D001E
:1002B000E23A66336539DB12E42EA01EA0127805FF
:1002C0000D00E23A66336539DB12E42EA01EA0125F
:1002D00078050D00C729A0346E3AE533F230F434C6
:1002E0006F37203AE539F418A039F430723A200516
:1002F0000D00C32BA027CE060A00C32BA027462340
:100300000D05A026E1346E10F437A021CF26A006FB
:100310000A00522CA027CE060A00E23A663365395D
:10032000A0316F39E531F4346F37A01278100D0524
:100330000001EA3A73346937B1060A00EA3A7334C5
:100340006937B2060A0063393D1025367816203821
:10035000EB1E2536F8060A00733A6139F42F432460
:10036000C521CB2FC32644050D006537E42F432458
:10037000C521CB2FC32644050D004529D227521095
:100380004329430021008D1322008D130830F8000B
:10039000C9290000F817DC29F8132300E80C220013
:1003A00003188D17031C8D137817DC297813F80BAD
:1003B000CD29DA2900008D1784308400840BDE29D2
:1003C0000000F81BCC29781BD629200008000B0858
:1003D0008B1323009517151400000000891B8B1741
:1003E00013087F390319232AB4001108B500120835
:1003F000B6003408E8002000C2212300350891002F
:10040000360892000B088B13951715140000000096
:10041000891B8B17130D140D7F390319232AB40080
:100420001108B5001208B6003408E8002000C22107
:1004300023003508910036089200910A0319920AA8
:100440002000E72923002000080021008F1222004D
:100450008F1621000E1122000E1521008F10220090
:100460008F1021000F1122000F1121008F11220087
:100470008F1121001E169E161E139E131D141E1092
:100480009E101E11203023008C000130900000309F
:100490008D008F00C0308B0421009116A031200008
:1004A0009328213085002830840000080319662A2B
:1004B0000530F800F701F70B5B2AF80B5A2A2E30AB
:1004C000F700F70B612A642A800B582A08002200E3
:1004D0008F1064302300D8002000512222000F1119
:1004E00064302300D8002000512222008F11643094
:1004F0002300D800200051224F302300910000300B
:1005000092002000E72108000B088B1323009517A9
:10051000151400000000891B8B170318AA2A130862
:100520007F39DB001108DC001208DD005B08E80001
:100530002000C22123005C0891005D0892000B0896
:100540008B139517151400000000891B8B17D80B0F
:10055000AA2AC42A130D140D7F39DB001108DC0010
:100560001208DD005B08E8002000C22123005C08BF
:1005700091005D089200910A0319920A0310D80BAA
:10058000C22AC42A2000842A200008002030230028
:10059000381E3030BC003708F700B71FD72AF709DC
:1005A000F70A7708B7002D30BC00B8173814780860
:1005B0002000A8018B1BA8178B13230037082500E8
:1005C000BE006430BF0020001B21A81B8B177708DA
:1005D0002300B70030307807BD002000A8018B1B36
:1005E000A8178B13230037082500BE000A30BF0070
:1005F00020001B21A81B8B17303077072300BF007A
:1006000030307807BE003C08F70030303D02031957
:100610000D2BB814B81B3815212B3C08BD00203019
:10062000BC0030303E020319192B3814B81BB81423
:10063000212B031D3814031D212B3D08BE00203043
:10064000BD003819282BB8182D2B3818322B372B12
:100650003C08E8002000C22123003D08E8002000FB
:10066000C22123003E08E8002000C22123003F08E9
:10067000E8002000C22108002300DA1B512B0F30B4
:10068000F700590EF7050A30770203184A2B30306D
:10069000F7074C2B5A08F7077708E8002000C2211B
:1006A00023000F30D9050A3059020318592B303076
:1006B0005B2BDA135A08D9075908E8002000C22139
:1006C0000800D8080319A32B2300AA012A080D3C0F
:1006D000031CA12B2C302A0784002030850003182E
:1006E000850A0008AD004F309100013092000310E0
:1006F0000730D8002000842223002A08B7001830D1
:10070000B8002000C622533023009100013092002F
:1007100003140430D8002000842223002D08D900BF
:100720005730DA0020003C230A302300E800200084
:10073000C2210D302300E8002000C2212300AA0AB4
:10074000662B252C2000D9080319E52B2300AB01CB
:100750002B080D3C031CE32B2C302B07840020308E
:1007600085000318850A0008AD005830910001305B
:10077000920003100730D8002000842223002B08A9
:10078000B7001830B8002000C6225C30230091006A
:100790000130920003140430D8002000842223008A
:1007A0002D08D9005730DA0020003C230A302300FE
:1007B000E8002000C2210D302300E8002000C22103
:1007C0002300AB0AA82B252C2000DA080319262CBD
:1007D0002300AC012C080D3C031C252C2C302C07CD
:1007E0008400203085000318850A0008AD006130C0
:1007F00091000130920003100730D80020008422BD
:1008000023002C08B7001830B8002000C62265303D
:10081000230091000130920003140430D80020001E
:10082000842223002D08D9005730DA0020003C2311
:100830000A302300E8002000C2210D302300E80028
:100840002000C2212300AC0AEA2B2000A031A928F5
:100850001030F80021001D08833978049D000F3006
:10086000F8001F08F03978049F000D30F700F70BEF
:10087000372C9D149D183A2C1C08F9001B08F80011
:100880001C08FA001C08F9002000080083184C2CF2
:100890002130850040308400F701F801F901FA01A8
:1008A0002400A001A101A201A30123006F086E048E
:1008B0006D046C040319A82C20302400A40003103C
:1008C0002300E80DE90DEA0DEB0D2400A00DA10DAC
:1008D000A20DA30D23006F0824002302031D802C0A
:1008E00023006E0824002202031D802C23006D08C3
:1008F00024002102031D802C23006C082400200208
:10090000031CA12C23006C082400A00223006D0806
:10091000031C6D0F8C2C8F2C2400A10223006E0869
:10092000031C6E0F942C972C2400A20223006F0846
:10093000031C6F0F9C2C9F2C2400A3022300031484
:100940002400F70DF80DF90DFA0DA40B5F2C230010
:100950002400200880002108813F2208823F2308CC
:10096000833F200008002300AD01AC01AB01AA01C8
:10097000AE012E08133C031CCD2C2000282478083F
:100980002300AA077908AB3D0030AC3DAD3D0D30EA
:10099000F700F70BC92CAE0AB92C83102D08EB0019
:1009A0002C08EA002B08E9002A08E800EF01EE0114
:1009B000ED011430EC002000462478082300B0003C
:1009C0007708AF002F08F8003008F900A0312000A8
:1009D000AC282300B20132080F3C031CF92CCA30AA
:1009E00032078400203085000318850A8001B20A8E
:1009F000EB2CB008031D7C2D20003D082200CA000E
:100A000020003E082200CB0020003F082200CC003E
:100A1000200040082200CD00200041082200CE0026
:100A2000200042082200CF00200043082200D0000E
:100A3000200044082200D100200045082200D200F6
:100A4000200046082200D300200047082200D400DE
:100A5000200048082200D500200049082200D600C6
:100A600020004A082200D7000D302300E8002000B3
:100A7000C2210A302300E8002000C2212300B20175
:100A800032080D3C031C7B2DCA3032078400203015
:100A900085000318850A0008B600C53091000030B3
:100AA000920003100C30D80020008422230032086A
:100AB000B7001830B8002000C6225D302300E800DF
:100AC0002000C22109302300E8002000C2212300B9
:100AD0003608D9005730DA0020003C230D302300BF
:100AE000E8002000C2210A302300E8002000C221D3
:100AF0002300B20A402D9C2D300B8A2D503022004D
:100B0000CE00CF01D001D101D201D301D401D50152
:100B10009B2D23003008023C031D9C2D59302200E0
:100B2000CE00CF01230031082200D000D101D20134
:100B3000D301D401D5012300B30133080D3C031CBC
:100B4000D22DCA3033078400203085000318850A6F
:100B50000008B6003608B70021008D1022008D1065
:100B60000830F800B32D0000F817C62DF813230045
:100B7000B70C220003188D14031C8D107817C62D96
:100B80007813F80BB72DC42D00008D148430840029
:100B9000840BC82D0000F81BB62D781BC02D230038
:100BA000B30A9D2DB40134080D3C031C0E2ECA302F
:100BB00034078400203085000318850A0008B60039
:100BC000D03091000030920003101130D800200086
:100BD000842223003408B7001830B8002000C62251
:100BE000D930230091000030920003140430D80063
:100BF0002000842223003608D9005730DA00200074
:100C00003C230A302300E8002000C2210D302300DD
:100C1000E8002000C2212300B40AD32D20000800E0
:100C20002300A508031D6C2E2408013C031C6C2E18
:100C3000031D242E2308863C031C6C2E031D242E2A
:100C400022089F3C031C6C2E20000D19622EDA3006
:100C500071078400203085000318850A05082300E9
:100C6000B3000408B20021000D1520000D19362E26
:100C70000830F7002300B401F7174E2EF7134E2E5D
:100C8000031020000D1903142300B40C77174E2E07
:100C90007713F70B402E3408F8005A2E8430F71BD8
:100CA0002430F800F80B522E552EF71B3E2E771BE2
:100CB000482E402E330885003208840078088000D2
:100CC000F10A200001302300A2070318A30A031928
:100CD000A40A0319A50A112EF101A501A401A3017B
:100CE000A2012000080023006C08083C03197C2E98
:100CF000EE00EB0DEE0B792E21000F178F130F1264
:100D000022000F1223006C08EE00EB1B8A2E22003B
:100D10008F132300EB1F8F2E22008F172300EB0D64
:100D200022000F16F80D20000F1F78100F1B7814EB
:100D300022000F122300EE0B852E20000800220057
:100D40008F124230F700F70BA32E0000063023006D
:100D5000EB000830EC000130ED002000732622008B
:100D60008F16200008002300CA01CB01CC01F80136
:100D7000F901FA014308C400CB01CC01F801F901E3
:100D8000FA014208C500CC01F801F901FA01410855
:100D9000C600F801F901FA014008C70020009F26AB
:100DA00022008F120230F700F70BD42E0000DC3047
:100DB0002300EB000830EC000130ED00200073262A
:100DC00023004408EB000830EC000130ED00200067
:100DD000732623004508EB000830EC000130ED00DD
:100DE0002000732623004608EB000830EC00013099
:100DF000ED002000732623004708EB000830EC00CC
:100E00000130ED00200073260230F700F70B062FAB
:100E1000000022008F160C302300C800FA30D800E2
:100E2000200051222300C80B0E2F200008002400B0
:100E3000110823006B0824009100140C031C1D2FC3
:100E40001108F700200008002300ED01EE01EF017A
:100E5000F801F901FA016308E400EE01EF01F8017D
:100E6000F901FA016208E500EF01F801F901FA0160
:100E70006108E600F801F901FA016008E7002200C4
:100E80000E110230F700F70B432F00001330230040
:100E9000EB002000172723006408EB002000172731
:100EA00023006508EB002000172723006608EB00ED
:100EB0002000172723006708EB00200017270230C7
:100EC0002300EB002000172777082300E80022000A
:100ED0000E1523006808F800200008002300D40144
:100EE000D501D601F801F901FA014808CA00D50177
:100EF000D601F801F901FA014708CB00D601F80143
:100F0000F901FA014608CC00F801F901FA01450897
:100F1000CD0020009F2622008F120230F700F70B31
:100F20008F2F000012302300EB000830EC0001305E
:100F3000ED002000732623004A08EB000830EC0087
:100F40000130ED002000732623004B08EB00083031
:100F5000EC000130ED002000732623004C08EB006C
:100F60000830EC000130ED002000732623004D080E
:100F7000EB000830EC000130ED0020007326230068
:100F80004908EB000830EC000130ED00200073262A
:100F900022008F162000080022008F1464302300E6
:100FA000D8002000512222000F1164302300D80005
:100FB0002000512222008F1164302300D80020002D
:100FC0005122413023009100003092002000E7219F
:100FD0000800111EE92F23009A00200008002200BB
:100FE0008F11B4302300D80020005122080098311E
:0E0FF00048208031983148208031EF270800DA
:1010000023003508C3003408C2003308C100320889
:10101000C00080312000B32688312300BD01BC010F
:10102000BB01BA013D083902031C6628031D2828AC
:101030003C083802031C6628031D28283B08370299
:10104000031C6628031D282836083A020318662860
:101050003A083207C0003B08333DC1003C08343D2C
:10106000C2003D08353DC3003A083207C4003B08C2
:10107000333DC5003C08343DC6003D08353DC70042
:10108000E3004608E2004508E1004408E000803142
:1010900020002427883178082300C4004308C800B2
:1010A0004208C7004108C6004008C5004408C900FE
:1010B000803120006E27883101302300BA070318E1
:1010C000BB0A0319BC0A0319BD0A12282000080034
:1010D00020302300EF00EB01EC01ED01EE0163088D
:1010E000FA006208F9006108F8006008F7000310D0
:1010F000771C88286408EB0765080318650FEC0760
:1011000066080318660FED0767080318670FEE07F8
:10111000EE0CED0CEC0CEB0CFA0CF90CF80CF70CDB
:10112000EF0B7728200008002300ED01EE01EF010E
:10113000F801F901FA016308E400EE01EF01F8019A
:10114000F901FA016208E500EF01F801F901FA017D
:101150006108E600F801F901FA016008E7002200E1
:101160008F120230F700F70BB32800001330230072
:10117000EB000830EC000130ED00803120007326D8
:10118000883123006408EB000830EC000130ED00EA
:10119000803120007326883123006508EB00083079
:1011A000EC000130ED0080312000732688312300EF
:1011B0006608EB000830EC000130ED0080312000C3
:1011C0007326883123006708EB000830EC000130FB
:1011D000ED00803120007326883101302300EB00C0
:1011E0000830EC000130ED0080312000732688319A
:1011F00078082300E80022008F1623006808F80012
:10120000200008002300DE01DD01FF30DC00DB00F0
:10121000E201E1018430E0000830DF00EB01EA0187
:10122000E901E801EB08031DA429EA08031DA4292C
:10123000E908031DA4295A0868020318A4293C30B0
:101240006807F8002130693DFA0078082500B400ED
:101250007A08B50023005808680784005908693DDA
:10126000850000082500B600350885003408840094
:10127000360880002300E701E601E501E401E70804
:10128000031D9B29E608031D9B29E508031D9B29D7
:101290006408073C031C9B293C306807840021300C
:1012A000693D850000085B062500B40023005C084A
:1012B0002500B50023005D082500B60023005E0868
:1012C0002500B700340801392300E3000310DE0CC9
:1012D000DD0CDC0CDB0C630B75295F08DB0660089A
:1012E000DC066108DD066208DE063C306807F800AF
:1012F0002130693DFA0078082500B4007A08B5006D
:101300003C302300680784002130693D85000310CC
:10131000000C2500B6003508850034088400360826
:10132000800001302300E4070318E50A0319E60AE8
:101330000319E70A3F290130E8070318E90A0319EE
:10134000EA0A0319EB0A1229FF30DB06DC065B0808
:10135000F8005C08F900200008002300BA08031D0B
:10136000032ABB08031D032ABC08031D032ABD086A
:10137000031D032A83103908EB003808EA003708F8
:10138000E9003608E800EF01EE01ED015130EC0014
:1013900080312000462488317A082300DB00790858
:1013A000DA007808D9007708D80001305807BF0064
:1013B0000030593DC00000305A3DC10000305B3D57
:1013C000C200673091000030920003102230D80034
:1013D000803120008422883123003F08D900573013
:1013E000DA00803120003C238831793023009100DD
:1013F0000030920003101630D80080312000842283
:101400008831372A2300B608031D382AB708031D80
:10141000382AB808031D382AB908031D382A3D08A0
:10142000C2003C08C1003B08C0003A08BF0085303C
:1014300091000030920003102230D800803120004B
:101440008422883123003A08D9005730DA008031ED
:1014500020003C2388319730230091000030920017
:1014600003101630D80080312000842288312300F8
:10147000C601C501C4010130C30046084202031C75
:10148000662C031D532A45084102031C662C031DCC
:10149000532A44084002031C662C031D532A4308A8
:1014A0003F02031C662C4A302100AD004730AE00DD
:1014B0003630AF005930B0004230B1005730B20082
:1014C0003030B3004A30B4004730B5003630B60093
:1014D0005930B7004D30B8005830B9003030BA003C
:1014E0003E30BB00F030BC00FF30BD00F030BE002D
:1014F000FF30BF00230045082100C000230044083E
:101500002100C100230043082100C20023003E0B3C
:10151000002BCA01C901C8011630C700CA08031D43
:10152000002BC908031D002BC808031D002B47080A
:10153000663C031C002B5D304707D8002030483D37
:10154000D90001304302F7000030443BF80000307E
:10155000453BF9000030463BFA00DD007908DC002D
:101560007808DB007708DA000508DF000408DE00F1
:10157000E301E201E1015130E0005D08E7005C08B1
:10158000E6005B08E5005A08E4002000682023001C
:101590005F0885005E08840077083207DA00780863
:1015A000333DDB007908343DDC007A08353DDD0051
:1015B0004708DA074808DB3D4908DC3D4A08DD3DBD
:1015C0001630DA020030DB3BDC3BDD3B5D08E3003C
:1015D0005C08E2005B08E1005A08E000200094206B
:1015E00023005908850058088400780880000130DD
:1015F000C7070318C80A0319C90A0319CA0A8E2A99
:10160000BE08031D1D2CA330910000309200031072
:101610001D30D80080312000842288314130840080
:1016200023004608DB004508DA004408D9004308D7
:10163000D8000408E0003B30E7009A30E600CA30EA
:10164000E500E4010A30E2008314213085002830EF
:1016500084005B08EB005A08EA005908E9005808C2
:10166000E8006708EF006608EE006508ED00640812
:10167000EC0080312000462488317808F708031DEB
:10168000582B23006208013A031D482B2000582BD9
:10169000600803195A2B0F3962020319512B0318E2
:1016A000632BE01B632B601B5A2B20305B2B20002D
:1016B0002300E0013030F7077708E8008031200090
:1016C000C2218831230083106708EB006608EA0016
:1016D0006508E9006408E800EF01EE01ED010A3059
:1016E000EC0080312000462488317A082300E7008E
:1016F0007908E6007808E5007708E400E20B242B7F
:10170000B33091000030920003101730D8008031C0
:101710002000842288312300CE01CD01CC01163077
:10172000CB00CE08031D1D2CCD08031D1D2CCC089D
:10173000031D1D2C4B08663C031C1D2C5D304B0704
:10174000D80020304C3DD90001304302F700003072
:10175000443BF8000030453BF9000030463BFA00BE
:10176000DD007908DC007808DB007708DA0005087E
:10177000DF000408DE00E301E201E1015130E00096
:101780005D08E7005C08E6005B08E5005A08E40035
:101790002000682023005F0885005E088400770829
:1017A0003207DA007808333DDB007908343DDC008D
:1017B0007A08353DDD004B08DA074C08DB3D4D0863
:1017C000DC3D4E08DD3D1630DA020030DB3BDC3B11
:1017D000DD3B5D08E3005C08E2005B08E1005A08BD
:1017E000E00080312000242788312300590885003B
:1017F00058088400780880005D304B078400203052
:101800004C3D85000008D8002030E80080312000E1
:10181000C221883123005808D9005730DA008031BE
:1018200020003C23883101302300CB070318CC0A69
:101830000319CD0A0319CE0A912B2030D9005D304F
:10184000D8006730DA002000022179082300D00098
:101850007808CF004F082200C4002300500822005F
:10186000C5002300D1015108683C031C482C5D30A1
:1018700051078400203085000318850A0008D8002D
:10188000580880312000E92788312300D10A332C01
:101890000D30E80080312000C22188310A30230059
:1018A000E80080312000C2218831DC302300D800DC
:1018B000803120005122883101302300C3070318F2
:1018C000C40A0319C50A0319C60A3D2A20000800E4
:1018D0002300B20132080D3C031C782C1D30320766
:1018E0008400203085000318850A8001B20A6A2C22
:1018F0002000CB0108002300B1013108103C031C7B
:101900008B2C2C3031078400203085000318850A89
:101910008001B10A7D2C200008004C08423C031DC8
:10192000B62C2300AA012A080D3C031CB32C1D3041
:101930002A07F8002030FA000318FA0A7808B100E4
:101940007A08B2002C302A07840020308500031862
:10195000850A0008B3003208850031088400330886
:101960008000AA0A932C2000A9017B244D08423C48
:10197000031DE02C2300AB012B080D3C031CDD2CC8
:101980001D302B07F8002030FA000318FA0A7808F7
:10199000B1007A08B20001302B072C3E84002030C1
:1019A00085000318850A0008B30032088500310855
:1019B000840033088000AB0ABC2C2000A9017B24E2
:1019C0004E08423C031D0A2D2300AC012C080D3C9F
:1019D000031C072D1D302C07F8002030FA000318D7
:1019E000FA0A7808B1007A08B20002302C072C3EBF
:1019F0008400203085000318850A0008B3003208EF
:101A000085003108840033088000AC0AE62C2000F1
:101A1000A9017B244F08423C031D342D2300AD0156
:101A20002D080D3C031C312D1D302D07F8002030F2
:101A3000FA000318FA0A7808B1007A08B2000330F5
:101A40002D072C3E8400203085000318850A0008ED
:101A5000B300320885003108840033088000AD0AE5
:101A6000102D2000A9017B245008423C031D5E2D4F
:101A70002300AE012E080D3C031C5B2D1D302E07EC
:101A8000F8002030FA000318FA0A7808B1007A0842
:101A9000B20004302E072C3E84002030850003184D
:101AA000850A0008B3003208850031088400330835
:101AB0008000AE0A3A2D2000A9017B2420302300AB
:101AC000D9001D30D8000C30DA002000022179083E
:101AD0002200C7007808C600BF3023009100003004
:101AE000920080312000E72188312300AF012F08C8
:101AF0000D3C031C952D1D302F07840020308500E0
:101B00000318850A0008B100D9005730DA00803187
:101B100020003C23883120302300E8008031200061
:101B2000C22188312300AF0A772D0D30E8008031C3
:101B30002000C22188310A302300E80080312000D3
:101B4000C22188314A082200C90020004908220029
:101B5000C80020003E08F000A0318F2A4A30DD0086
:101B60004730DE003630DF005930E0004230E1001F
:101B70005730E2003030E3004A30E4004730E500FF
:101B80003630E6005930E7004D30E8005830E900C3
:101B90003030EA003E30EB00F030EC00AA30ED00CF
:101BA0000330EE003E08EF003F082100A0002000B7
:101BB00040082100A100200041082100A2002000CF
:101BC00042082100A300200043082100A4002000B7
:101BD00044082100A500200045082100A60020009F
:101BE00046082100A700200047082100A800200087
:101BF00048082100A900AA30AA0020302300D900FB
:101C00003D30D8001E30DA00200002217908230080
:101C1000B3007808B20032082100AB00230033087B
:101C20002100AC008F1022008F1408302300B60072
:101C3000FA30D80080312000512288312300B60BC1
:101C4000182EB40134081F3C031C692E3D303407A4
:101C50008400203085000318850A0008B6005D3036
:101C600091000030920003100930D800803120002C
:101C70008422883123003408B7001830B80080313E
:101C80002000C6228831623023009100003092008B
:101C900003140430D80080312000842288312300CE
:101CA0003608D9005730DA00803120003C238831D3
:101CB0000A302300E80080312000C22188310D3035
:101CC0002300E80080312000C22188312300B40ABB
:101CD000222EB50135081F3C031C7F2E3D303507F1
:101CE0008400203085000318850A0008B6003608F5
:101CF00080312000E92788312300B50A6A2E02309E
:101D0000B600FA30D80080312000512288312300FB
:101D1000B60B812E21008F1022008F1020000800AA
:101D2000AE250E302300910001309200803120005A
:101D3000E72188312300AA012A08593C031CAA2E56
:101D40000230D80080312000512288316400230005
:101D5000AA0A9C2E20006824A031D52A4A30DD0032
:101D60004730DE003630DF005930E0004230E1001D
:101D70005730E2003030E3004A30E4004730E500FD
:101D80003630E6005930E7004D30E8005830E900C1
:101D90003030EA003E30EB00F030EC00AA30ED00CD
:101DA0000330EE003E08EF003F082100A00069303C
:101DB000A100A200A300A400A500A600A700A800FF
:101DC000A900AA30AA0020302300D9003D30D80055
:101DD0001E30DA002000022179082300B1007808C3
:101DE000B00030082100AB00230031082100AC0016
:101DF0008F1022008F1408302300B300FA30D8006F
:101E000080312000512288312300B30BFE2EB20115
:101E100032081F3C031C1D2F3D3032078400203048
:101E200085000318850A0008B300330880312000BC
:101E3000E92788312300B20A082F0230B300FA30B4
:101E4000D80080312000512288312300B30B1F2F8E
:101E500021008F1022008F10200008004808230066
:101E6000AA002A08783C031C4C2F2000AE25230032
:101E7000AB012A082B0203184B2F1430AC00FA30A8
:101E8000D80080312000512288312300AC0B3F2F35
:101E90006400AB0A392F4F2F2000AE26230020000C
:101EA0006824A031492B4008103C03195B2F4008DF
:101EB000113C031DF12FDE30230091000030920011
:101EC00080312000E721883141082300AD00200047
:101ED00042082300AC00200043082300AB00200090
:101EE00044082300AA00200045082300B100200078
:101EF00046082300B000200047082300AF00200060
:101F000048082300AE0080312000CC2788310430FF
:101F10002300B200FA30D8008031200051228831ED
:101F20002300B20B8A2F20004008103C031DB22F63
:101F300023002D08B5002C08B4002B08B3002A0894
:101F4000B200B901B801B701B6013108BD003008CF
:101F5000BC002F08BB002E08BA000130BE002000D4
:101F6000AD2168244008113C031DE12FEC30230013
:101F700091000030920080312000E7218831230059
:101F80002D08B5002C08B4002B08B3002A08B200B5
:101F9000B901B801B701B6013108BD003008BC0075
:101FA0002F08BB002E08BA00BE012000AD21682416
:101FB000F430230091000030920080312000E721AE
:101FC000883102302300B200FA30D800803120007E
:101FD000512288312300B20BE42F80312000672288
:101FE0008831A031552B98314820883198313520DF
:101FF00088319831482088318031EF2788310800B6
:102000004008133C031908284008143C031D942879
:1020100041082300AD00200042082300AC0020004E
:1020200043082300AB00200044082300AA0020003E
:1020300045082300B100200046082300B00020001E
:1020400047082300AF00200048082300AE0080317D
:102050002000CC27903104302300B200FA30D800A1
:1020600080312000512290312300B20B2E28200015
:102070004008133C031D632823002D08B5002C08DD
:10208000B4002B08B3002A08B2003108B9003008A8
:10209000B8002F08B7002E08B600BD01BC01BB0177
:1020A000BA010130BE0088312000AD219031FA30F4
:1020B000230091000030920080312000E721903110
:1020C0008831682490314008143C031D8428230083
:1020D0002D08B5002C08B4002B08B3002A08B20064
:1020E0003108B9003008B8002F08B7002E08B60034
:1020F000BD01BC01BB01BA01BE0188312000AD2188
:10210000903188316824903102302300B200FA30D7
:10211000D80080312000512290312300B20B872853
:102120008031200067229031A031582B41082300D4
:10213000AE00200042082300AD0020004308230029
:10214000AC00200044082300AB0020004508230019
:10215000B200200046082300B100200047082300F9
:10216000B000200048082300AF004A302100AD0035
:102170004730AE003630AF005930B0004230B100C9
:102180005730B2003030B3004A30B4004730B500A9
:102190003630B6005930B7004D30B8005830B9006D
:1021A0003030BA003E30BB00F030BC00FF30BD0024
:1021B000F030BE00FF30BF00230031082100C00016
:1021C000230030082100C10023002F082100C20095
:1021D00023002A0B6A29B601B501B4011630B300F9
:1021E000B608031D6A29B508031D6A29B408031D32
:1021F0006A293308663C031C6A295D303307F800FE
:102200002030343DFA007808C0007A08C10001305F
:102210002F02F7000030303BF8000030313BF9006E
:102220000030323BFA00C5007908C4007808C300CA
:102230007708C2000508C7000408C600E301E201F0
:10224000E1015130E0004508E7004408E60043089A
:10225000E5004208E4008831200068209031230026
:10226000470885004608840077082B07C2007808D5
:102270002C3DC30079082D3DC4007A082E3DC500D1
:102280003308C2073408C33D3508C43D3608C53D90
:102290001630C2020030C33BC43BC53B4508E300D7
:1022A0004408E2004308E1004208E00088312000D1
:1022B000942090312300410885004008840078086C
:1022C00080000130B3070318B40A0319B50A0319D3
:1022D000B60AF028AA08031DEC29BA01B901B80111
:1022E0001630B700BA08031DEC29B908031DEC2904
:1022F000B808031DEC293708663C031CEC295D3047
:102300003707F8002030383DFA007808C0007A0816
:10231000C10001302F02F7000030303BF8000030E0
:10232000313BF9000030323BFA00C5007908C400A7
:102330007808C3007708C2000508C7000408C60073
:10234000E301E201E1015130E0004508E700440803
:10235000E6004308E5004208E400883120006820D8
:1023600090312300470885004608840077082B0732
:10237000C20078082C3DC30079082D3DC4007A08BE
:102380002E3DC5003708C2073808C33D3908C43D93
:102390003A08C53D1630C2020030C33BC43BC53BC2
:1023A0004508E3004408E2004308E1004208E00079
:1023B0008031200024279031230041088500400807
:1023C0008400780880000130B7070318B80A0319A1
:1023D000B90A0319BA0A72292030D9005D30D80031
:1023E0006730DA008831200002219031790823001B
:1023F000BC007808BB003B082200C40023003C0856
:102400002200C5002300BD013D08683C031C192AB9
:102410005D303D078400203085000318850A0008E0
:10242000C000400880312000E92790312300BD0A18
:10243000042AC830D8008031200051229031080091
:102440004008153C0319282A4008163C031D5F2A42
:102450008031CC27903104302300AA00FA30D80014
:1024600080312000512290312300AA0B2E2A200017
:102470004008153C031D442A01302300AA00200017
:1024800096208831682490314008163C031D4F2A5D
:102490002300AA0120009620883168249031023060
:1024A0002300AA00FA30D800803120005122903158
:1024B0002300AA0B522A8031200067229031A031DC
:1024C0005B2B4008353C031DD62A41082300AD0094
:1024D000200042082300AC00200043082300AB008A
:1024E000200044082300AA00200047082300AF0072
:1024F000200048082300AE000230B000200045084C
:102500002300B10080312000E92490318031102671
:10251000903108302300B000FA30D800803120001C
:10252000512290312300B00B8C2A22006608663CB1
:10253000031DD22A80312000CC27903104302300A3
:10254000B000FA30D80080312000512290312300B1
:10255000B00BA12A2D08B5002C08B4002B08B3003D
:102560002A08B200B901B801B701B601BD01BC012A
:102570002F08BB002E08BA00BE0188312000AD2113
:10258000903102302300B000FA30D80080312000B2
:10259000512290312300B00BC42A803120006722E1
:1025A000903122008831200068249031A0315E2BC8
:1025B000013023003302D0003208D1005008D2008D
:1025C000F701F801510803105218F707F70CF80C3F
:1025D000D218F707F70CF80C5219F707F70CF80C9C
:1025E000D219F707F70CF80C521AF707F70CF80C8A
:1025F000D21AF707F70CF80C521BF707F70CF80C78
:10260000D21BF707F70CF80CB801B701B601780830
:10261000B500E301E201E1015130E0003808E700D4
:102620003708E6003608E5003508E4008831200068
:1026300068209031770823002E07B90078082F3DD5
:10264000BA007908303DBB007A08313DBC00C001BA
:10265000BF01BE010130BD00C008031DAE2CBF0884
:10266000031DAE2CBE08031DAE2C3D083202031C18
:10267000AE2C4A302100AD004730AE003630AF00FE
:102680005930B0004230B1005730B2003030B300A2
:102690004A30B4004730B5003630B6005930B70084
:1026A0004D30B8005830B9003030BA003E30BB0071
:1026B000F030BC00FF30BD00F030BE00FF30BF0086
:1026C00023003F082100C00023003E082100C10074
:1026D00023003D082100C2002300340BEF2BC4016E
:1026E000C301C2011630C100C408031DEE2BC3088C
:1026F000031DEE2BC208031DEE2B4108663C031C94
:10270000EE2B5D304107F8002030423DFA0078089A
:10271000D0007A08D10001303D02F70000303E3B86
:10272000F80000303F3BF9000030403BFA00D50094
:102730007908D4007808D3007708D2000508D700BC
:102740000408D600E301E201E1015130E000550840
:10275000E7005408E6005308E5005208E400883119
:102760002000682090312300570885005608840017
:1027700077083907D20078083A3DD30079083B3D05
:10278000D4007A083C3DD5004108D2074208D33D29
:102790004308D43D4408D53D1630D2020030D33B27
:1027A000D43BD53B5508E3005408E2005308E10050
:1027B0005208E00088312000942090312300510815
:1027C000850050088400780880000130C107031894
:1027D000C20A0319C30A0319C40A742B712CB40862
:1027E000031D712CC801C701C6011630C500C808F9
:1027F000031D712CC708031D712CC608031D712C05
:102800004508663C031C712C5D304507F8002030FC
:10281000463DFA007808D0007A08D10001303D0228
:10282000F70000303E3BF80000303F3BF90000303D
:10283000403BFA00D5007908D4007808D300770827
:10284000D2000508D7000408D600E301E201E10147
:102850005130E0005508E7005408E6005308E50051
:102860005208E40088312000682090312300570886
:1028700085005608840077083907D20078083A3D69
:10288000D30079083B3DD4007A083C3DD50045088B
:10289000D2074608D33D4708D43D4808D53D1630F9
:1028A000D2020030D33BD43BD53B5508E30054085B
:1028B000E2005308E1005208E000803120002427A4
:1028C000903123005108850050088400780880006A
:1028D0000130C5070318C60A0319C70A0319C80A35
:1028E000F72B2030D9005D30D8006730DA0088310E
:1028F00020000221903179082300CA007808C9001D
:1029000049082200C40023004A082200C500230011
:10291000CB014B08683C031C9E2C5D304B078400A8
:10292000203085000318850A0008D0005008803147
:102930002000E92790312300CB0A892CC830D80029
:10294000803120005122903101302300BD0703184F
:10295000BE0A0319BF0A0319C00A2C2B2000080065
:102960004008443C031D022D41082300AD00200017
:1029700042082300AC00200043082300AB002000E5
:1029800044082300AA000230B000200045082300BC
:10299000B10080312000E92490318031CC27903182
:1029A00004302300AE00FA30D800803120005122DC
:1029B00090312300AE0BD32C2D08B1002C08B000B1
:1029C0002B08AF002A08AE00200048082300B20000
:1029D000200047082300B300B4012000D82288312A
:1029E0006824903102302300AE00FA30D8008031E4
:1029F0002000512290312300AE0BF52C80312000B5
:102A000067229031A031612B4008403C03190C2D06
:102A10004008413C031D742D41082300AD002000F7
:102A200042082300AC00200043082300AB00200034
:102A300044082300AA0080312000CC2790310430C4
:102A40002300AE00FA30D8008031200051229031AE
:102A50002300AE0B222D20004008403C031D492DD1
:102A600023002D08B1002C08B0002B08AF002A0865
:102A7000AE00200048082300B200200047082300D1
:102A8000B3000130B4002000D8228831682490318E
:102A9000642D4008413C031D642D23002D08B10026
:102AA0002C08B0002B08AF002A08AE002000480810
:102AB0002300B200200047082300B300B401200027
:102AC000D82288316824903102302300AE00FA30D9
:102AD000D80080312000512290312300AE0B672DA9
:102AE0008031200067229031A031642B4008303CB7
:102AF000031D612E4A30DD004730DE003630DF0036
:102B00005930E0004230E1005730E2003030E3005D
:102B10004A30E4004730E5003630E6005930E7003F
:102B20004D30E8005830E9003030EA003E30EB002C
:102B3000F030EC00AA30ED000330EE003E08EF006C
:102B40003F082100A0001430F8001D0883397804E4
:102B50009D000F30F8001F08F03978049F000D30F9
:102B6000F700F70BB12D9D149D18B42D1C08F9002A
:102B70001B08F8001C08FA001C08F900790823005B
:102B8000AB007808AA00AF01AE01AD01AC01B00105
:102B90003008633C031CDE2D803120002824903156
:102BA00078082300AC077908AD3D0030AE3DAF3D5D
:102BB0008530F700F70BDA2DB00AC82D83102F08E7
:102BC000EB002E08EA002D08E9002C08E800EF01D0
:102BD000EE01ED016430EC0080312000462490319C
:102BE00078082300B2007708B100200040082100D7
:102BF000A100DD30A200230032082100A300230041
:102C000031082100A400DD30A500A60023002B0818
:102C10002100A70023002A082100A800DD30A90018
:102C2000AA30AA0020302300D9003D30D8001E3041
:102C3000DA00883120000221903179082300B400A5
:102C40007808B30033082100AB00230034082100CA
:102C5000AC008F1022008F1408302300B600FA3029
:102C6000D80080312000512290312300B60B2F2E46
:102C7000B50135081F3C031C4E2E3D30350784003E
:102C8000203085000318850A0008B6003608803118
:102C90002000E92790312300B50A392E0230B60012
:102CA000FA30D80080312000512290312300B60B39
:102CB000502E21008F1022008F10883120006824B0
:102CC0009031A031672B4008273C031D222F41087B
:102CD0002300AD00200042082300AC002000430880
:102CE0002300AB00200044082300AA00200047086E
:102CF0002300AF00200048082300AE000230B000DF
:102D0000200045082300B10080312000E9249031E3
:102D100080311026903122006608663C031DFB2E90
:102D200023002F08B1002E08B000B3015130B200CB
:102D30001030B400F701FA01B10CB00C031CA62E40
:102D40003208F7070318FA0A3308FA07FA0CF70CE7
:102D5000F90CF80CB40B9C2E7908B1007808B0007F
:102D60002D08B5002C08B4002B08B3002A08B200C7
:102D7000B901B8013108B7003008B6008831200029
:102D8000002090318031CC27903104302300B000F6
:102D9000FA30D80080312000512290312300B00B4E
:102DA000C82E2D08B5002C08B4002B08B3002A0843
:102DB000B200B901B801B701B601BD01BC012F08CD
:102DC000BB002E08BA000130BE0088312000AD21C2
:102DD000903102302300B000FA30D800803120005A
:102DE000512290312300B00BEC2E8031200067225D
:102DF00090311F2F220080312000CC2790310430E9
:102E00002300B000FA30D8008031200051229031E8
:102E10002300B00B022F88312000AE269031023003
:102E20002300B000FA30D8008031200051229031C8
:102E30002300B00B122F803120006722903188319F
:102E400068249031A0316A2B4008173C031D672F7E
:102E50008831AE25903141082300AD0020004208A2
:102E60002300AC00200043082300AB0020004408EE
:102E70002300AA00200045082300B10020004608D6
:102E80002300B000200047082300AF0020004808BE
:102E90002300AE002D08B5002C08B4002B08B300A9
:102EA0002A08B2003108B9003008B8002F08B7006E
:102EB0002E08B60088312000002090318831AE25E0
:102EC0009031883168249031803167229031A0316F
:102ED0006D2B4008223C031DCA2F41082300AD0082
:102EE000200042082300AC00200043082300AB0070
:102EF000200044082300AA00200047082300AF0058
:102F0000200048082300AE000230B0002000450831
:102F10002300B10080312000E92490318031102657
:102F2000903122006608663C031DC02F88312000C6
:102F3000AE25903104302300B000FA30D800803143
:102F40002000512290312300B00B9D2F2E08B1009C
:102F5000B0012D08B5002C08B4002B08B3002A08D6
:102F6000B200B901B8012E08B7003008B6008831A8
:102F70002000002090318831AE259031C42F2200EE
:102F800088312000AE26903188316824903180311C
:102F900067229031A031702B4008A03C031DF92F0F
:102FA0000630230091000130920080312000E7219B
:102FB00090312300B001B10180312000E92490312B
:102FC00080311026903122006608663C031DED2FEB
:102FD00088312000AE2590312200E608031DF52F30
:102FE00088312000AE2690312200883120006824EC
:062FF0009031A0318D2B91
:103000004008423C031D3328480B07280F28480876
:10301000053C03190F2848080A3C031D33280230D9
:103020002300B000200048082300B10080312000B8
:10303000E924983180311026983122006608663CD8
:10304000031D272888312000AE2598312200E6088C
:10305000031D2F2888312000AE26983122008831A8
:10306000200068249831A031732B22008F15B430D2
:103070002300D800803120005122983122008F1186
:103080003C302300D80080312000512298310800C4
:1030900022008F153C302300D800803120005122BF
:1030A000983122008F113C302300D800803120005D
:1030B000512298310800352048204820482080318E
:1030C000EF27983108003520482048208031EF272D
:1030D000983108004820482048208031EF27983157
:1030E0000800482048204820482035208031EF271C
:1030F0009831080048203520352035208031EF27D1
:10310000983108003520352048208031EF2798314C
:103110000800352048204820482048208031EF27EB
:103120009831080035204820352035208031EF27A0
:1031300098310800352035208031EF27983108007C
:1031400035204820482035208031EF27983108006D
:103150002300AC080319B0282C08303C031DBB2801
:103160002000352035203520352035208031EF27CF
:103170009831932A23002C0BBE28C2282C08313CFE
:10318000031DCD282000482035203520352035204E
:103190008031EF279831932A23002C08023C031931
:1031A000D5282C08323C031DE02820004820482068
:1031B0003520352035208031EF279831932A2300A0
:1031C0002C08033C0319E8282C08333C031DF32882
:1031D0002000482048204820352035208031EF2726
:1031E0009831932A23002C08043C0319FB282C084F
:1031F000343C031DFF2820007120932A23002C0853
:10320000053C031907292C08353C031D1229200011
:10321000482048204820482048208031EF27983116
:10322000932A23002C08063C03191A292C08363C43
:10323000031D1E2920008920932A23002C08073C07
:10324000031926292C08373C031D3129200035207D
:1032500035204820482048208031EF279831932A94
:1032600023002C08083C031939292C08383C031D7D
:103270004429200035203520352048204820803141
:10328000EF279831932A23002C08093C03194C2975
:103290002C08393C031D57292000352035203520C6
:1032A000352048208031EF279831932A23002C08BD
:1032B0000A3C03195F292C08613C031D6729200083
:1032C000482035208031EF279831932A23002C089D
:1032D0000B3C03196F292C08623C031D7329200045
:1032E0005B20932A23002C080C3C03197B292C0813
:1032F000633C031D852920003520482035204820C7
:103300008031EF279831932A23002C080D3C0319B4
:103310008D292C08643C031D912920006320932AE9
:1033200023002C080E3C031999292C08653C031D29
:10333000A029200048208031EF279831932A2300CC
:103340002C080F3C0319A8292C08663C031DB22940
:10335000200048204820352048208031EF27983130
:10336000932A23002C08673C031DBA2920008220E1
:10337000932A23002C08683C031DC82920004820FC
:103380004820482048208031EF279831932A230095
:103390002C08693C031DD22980312000F727983181
:1033A000932A23002C086A3C031DDA2920007A2086
:1033B000932A23002C086B3C031DE72920003520AD
:1033C000482035208031EF279831932A23002C089C
:1033D0006C3C031DF529200048203520482048205A
:1033E0008031EF279831932A23002C086D3C031D70
:1033F000FD2920009A20932A23002C086E3C031DEF
:10340000092A2000352048208031EF279831932A5F
:1034100023002C086F3C031D162A20003520352080
:1034200035208031EF279831932A23002C08703CF7
:10343000031D242A200048203520352048208031D3
:10344000EF279831932A23002C08713C031D322A60
:10345000200035203520482035208031EF27983155
:10346000932A23002C08723C031D3C2A883120003B
:10347000F3279831932A23002C08733C031D442A18
:1034800020006A20932A23002C08743C031D4F2A35
:10349000200035208031EF279831932A23002C0813
:1034A000753C031D5C2A20004820482035208031CF
:1034B000EF279831932A23002C08763C031D6A2AB3
:1034C000200048204820482035208031EF279831BF
:1034D000932A23002C08773C031D772A20004820DC
:1034E000352035208031EF279831932A23002C088E
:1034F000783C031D7F2A2000A020932A23002C085B
:10350000793C031D872A20009220932A23002C084F
:103510007A3C031D942A200035203520482048207D
:103520008031EF2798312300200008004008213C1B
:10353000031D1F2C22008F1064302300D80080311F
:1035400020005122983122000F1564302300D8004A
:10355000803120005122983122008F1164302300E5
:10356000D800803120005122983102302300AA0077
:10357000FA30D80080312000512298312300AA0B64
:10358000B82A20005B208031F72798318831F32753
:10359000983163206A20712002302300AA00FA309B
:1035A000D80080312000512298312300AA0BCF2A65
:1035B00020007A208220892092209A20A0200230A8
:1035C0002300AA00FA30D80080312000512298311F
:1035D0002300AA0BE22AE301E201E101E0018831C4
:1035E000200094209831780F352B73302300AC00E5
:1035F0002000A82069302300AC002000A8202C0E59
:103600002300AA00AB010F30AA05AA05AB012A08C6
:10361000AC002000A8202C082300AA00AB010F302A
:10362000AA05AB012A08AC002000A8202C0C23001E
:10363000AB0020002B0C2300AA00AB0CAA0CAB0C97
:10364000AA0CAB0CAA0C0F30AB05AA05AB012A08DB
:10365000AC002000A8202B080F392300AA00AB01E2
:103660002A08AC002000A820952B2300E301E201EA
:10367000E1010130E0008831200094209831780881
:103680002300AA00AC002000A8202300E301E201EF
:10369000E1010230E0008831200094209831780860
:1036A0002300AA00AC002000A8202300E301E201CF
:1036B000E1010330E000883120009420983178083F
:1036C0002300AA00AC002000A8202300E301E201AF
:1036D000E1010430E000883120009420983178081E
:1036E0002300AA00AC002000A8202300E301E2018F
:1036F000E1010530E00088312000942098317808FD
:103700002300AA00AC002000A8202300E301E2016E
:10371000E1010630E00088312000942098317808DB
:103720002300AA00AC002000A82002302300AA0039
:10373000FA30D80080312000512298312300AA0BA2
:10374000982B22005B08503C031DDA2B5C08F039F3
:10375000F700770EF2000F30F2055C080F39F30026
:103760005D08F039F700770EF4000F30F4055D08BE
:103770000F39F5005E08F039F700770EF6000F30CC
:10378000F6055E080F39FB005F08F039F700770E89
:10379000FC000F30FC055F080F39FD006008F039B0
:1037A000F700770EFE000F30FE0560080F3923008A
:1037B000A600220072082300AC002000A820730895
:1037C0002300AC002000A82074082300AC002000D7
:1037D000A82075082300AC002000A820760823004C
:1037E000AC002000A8207B082300AC002000A8200B
:1037F0007C082300AC002000A8207D082300AC003A
:103800002000A8207E082300AC002000A820230070
:103810002608AC002000A82002302300AA00FA30BD
:10382000D80080312000512298312300AA0B0F2CA0
:103830008031200067229831883168249831A03186
:10384000902B4008203C031D952C2300C301C2018E
:10385000C101C00180312000B32698312300C80186
:10386000C701C601C501200047082300C9008031F7
:1038700020006E2798312300C801C701C60101301E
:10388000C500200041082300C900803120006E27B8
:1038900098312300C801C701C6010230C5002000CD
:1038A00042082300C900803120006E279831230090
:1038B000C801C701C6010330C5002000430823002A
:1038C000C900803120006E2798312300C801C7014C
:1038D000C6010430C500200044082300C90080311F
:1038E00020006E2798312300C801C701C6010530AA
:1038F000C500200045082300C900803120006E2744
:1039000098312300C801C701C6010630C500200058
:1039100046082300C900803120006E279831883185
:0E392000AE259831883168249831A031932B60
:10400000A90121008D1322008D1723009F15223056
:104010009B0000309C00A6309E0090309D00210047
:104020008D1122008D1521008D1022008D1421008C
:104030000F178F130F1222000F1224009512403019
:104040009400093092002A30950022009D129D11A3
:104050001D1221008E120E168E112000B001AF012C
:10406000AE01AD01B401B301B201B101B501B901B5
:10407000B801B701B6015130BA00BC01BB01CB0198
:10408000F1012300A501A401A301A201F201F301A2
:10409000F401F501F601FB01FC01FD01FE01A601A1
:1040A0000130A700A8018C018D018E018F019001C4
:1040B0002200920191016E280E3460341D340034C8
:1040C00001342034CA34AA340E34C03400340134EC
:1040D0008034BB341834C0340034003420308500C0
:1040E0005C30840085171200F700003A0319882815
:1040F0001200F800F81B80283F3987001200860064
:10410000781B1200781F12001E00F70B82287328FC
:104110006A30230091000130920080312000E721B5
:10412000A0318031252AA03125302100970014309C
:104130002300AA00FA30D800803120005122A0319B
:104140002300AA0B9A28803120006722A0318031F9
:10415000612BA0318031B32CA0317908AC007808F4
:10416000AB0001302300B000B10180312000E92410
:10417000A03180311026A031793023009100013028
:10418000920080312000E721A03164007D302300BF
:1041900091000130920080312000E721A0312200FF
:1041A0006808773C031DE2282300A8080319DA28D1
:1041B0002200E22877302000B50001302300A7005C
:1041C000A8002200E808031DF1282000B5010130F5
:1041D0002300A700A8012000B001AF01AE01AD018E
:1041E00022006808353C031DFD2835302000B5004D
:1041F000B001AF01AE01AD01220020003508773CCF
:10420000031DA2292300270B602922006908200032
:10421000B00022006A082000AF0022006B082000D6
:10422000AE0022006C082000AD0022006D082000C6
:10423000B40022006E082000B30022006F082000A6
:10424000B200230020082000B10002302300B0009B
:104250000130B10080312000E924A0310C3023006E
:10426000AA00FA30D800803120005122A03123006A
:10427000AA0B3129200030082300B50020002F08A8
:104280002300B40020002E082300B30020002D08D6
:104290002300B200200034082300B90020003308B6
:1042A0002300B800200032082300B70020003108A6
:1042B0002300B600883120000020A0312300A70190
:1042C00080312000CC27A03104302300AA00FA302E
:1042D000D800803120005122A0312300AA0B672989
:1042E000200030082300B50020002F082300B40070
:1042F00020002E082300B30020002D082300B20068
:10430000B901B801B701B601BD01BC01BB0105305F
:10431000BA000130BE0088312000AD21A03102304A
:104320002300AA00FA30D800803120005122A031A9
:104330002300AA0B9229883120006824A031803103
:104340006722A0313508353C031D792A220069080F
:104350002000B00022006A082000AF0022006B0895
:104360002000AE0022006C082000AD0022006D0885
:104370002000B90022006E082000B80022006F085B
:104380002000B700230020082000B60039082300D1
:10439000E300200038082300E20020003708230053
:1043A000E100200036082300E000E701E601E50116
:1043B00020003A082300E400883120006820A03162
:1043C0007A08B4007908B3007808B2007708B10021
:1043D00002302300B0000130B10080312000E92418
:1043E000A0310C302300AA00FA30D8008031200020
:1043F0005122A0312300AA0BF42920003008230009
:10440000B50020002F082300B40020002E08230050
:10441000B30020002D082300B20020003408230040
:10442000B900200033082300B80020003208230020
:10443000B700200031082300B6008831200000209A
:10444000A0318031CC27A03104302300AA00FA30FB
:10445000D800803120005122A0312300AA0B272A46
:10446000200030082300B50020002F082300B400EE
:1044700020002E082300B30020002D082300B200E6
:10448000B901B801B701B601200039082300BD0009
:10449000200038082300BC00200037082300BB00A0
:1044A000200036082300BA000130BE008831200009
:1044B000AD21A03102302300AA00FA30D8008031AB
:1044C00020005122A0312300AA0B5D2A8831200050
:1044D0006824A03180316722A031B001AF01AE0164
:1044E000AD01B901B801B701B601B401B301B20120
:1044F000B101640080316722A0318930230091002E
:104500000130920080312000E721A0312300A90171
:104510002908273C031CBB2B883120008D2CA0319F
:104520008D30230091000130920003101130D8002B
:10453000803120008422A0313D082300D90057306B
:10454000DA00803120003C23A03120302300E80035
:1045500080312000C221A0310D302300E8008031DD
:104560002000C221A0310A302300E8008031200061
:10457000C221A0317008AA3C0319C62A7008BB3CAE
:104580000319C62A7008593C031DDF2A3F08903CD6
:10459000031DDF2A99302300910001309200803101
:1045A0002000E721A0318831902EA0319E302300D9
:1045B00091000130920080312000E721A031A3302A
:1045C000230091000130920003100430D8008031A4
:1045D00020008422A031220047082300D900573050
:1045E000DA00803120003C23A0312200460823005D
:1045F000D9005730DA00803120003C23A031A630AA
:10460000230091000130920003140530D80080315E
:1046100020008422A031220049082300D90057300D
:10462000DA00803120003C23A0312200480823001A
:10463000D9005730DA00803120003C23A0310D3002
:104640002300E80080312000C221A0310A3023007D
:10465000E80080312000C221A03122004808460233
:10466000031D9F2B49084702031D9F2B7008AA3C7E
:104670000319422B7008BB3C0319422B7008593CAC
:10468000031D9F2B20003F08AA3C031D4A2B8831A5
:104690002E2FA031AC3023009100013092008031E8
:1046A0002000E721A0318831532FA031903100281C
:1046B000A0319031202AA0319031612AA03190316F
:1046C000B02CA0319031042DA0319031762DA03145
:1046D0009031632EA0319031242FA0319031692F79
:1046E000A03198310028A03140082300D90057306C
:1046F000DA00803120003C23A0310A302300E8009A
:1047000080312000C221A0310D302300E80080312B
:104710002000C221A0319031CC2FA0319831962AAF
:10472000A0319831212CA031B53023009100013007
:10473000920080312000E721A031A82B2200BD305B
:10474000230091000130920080312000E721A03148
:10475000A90188316824A03108302300AA00FA306A
:10476000D800803120005122A0312300AA0BAF2BAA
:0C4770006400A90A882A2000A728630022
:020000040001F9
:04000E00DA3FFF1EB8
:00000001FF
;PIC16F1789
;CRC=953B  CREATED="19-10-21 16:13"
