:06000000A0310028000001
:0800080083018031200077081C
:10001000A0007808A1007908A2007A08A3002300B4
:1000200011082000A400230012082000A5002300CE
:1000300013082000A600230014082000A700850153
:1000400091308400801E2628911A3F282008F7004E
:100050002108F8002208F9002308FA0024082300E8
:10006000910020002508230092002000260823008C
:10007000930020002708230094000900200080310D
:10008000EA28C131EB2FF0316B3ADB12E42EA01ECF
:10009000A01278050D00AD16AD16AD16AD16AD1655
:1000A000AD16AD16AD16AD16AD16EE3AED2F6F339B
:1000B0005F38E33574103D10253CAD16AD16AD1616
:1000C000AD16AD16AD16AD16AD16AD16AD160001DA
:1000D000AD16AD16AD16AD16AD16AD16AD16AD1608
:1000E000AD16AD16EE3AED2F6F335F38E335741071
:1000F0003D10253CAD16AD16AD16AD16AD16AD16C0
:10010000AD16AD16AD16AD160000F030E335653A0C
:10011000A03965376410733A6139F4060A00C326C2
:10012000C42FF0316B3A3A100001C326CF2FD427E9
:10013000DF26C124CE2D2532DD04253C0D0500002F
:10014000733A6139F42FF4375F28C121CB22D42FC1
:10015000C4275727CC2741220001733A6139F42F75
:10016000F4375F18F8183100733A6139F4306439A4
:10017000E53973103D10A5310001F0316B3A5F375E
:10018000F536A01EA012630065376410303CB1182C
:100190000000D3224E225F22613AE12FD030E335B6
:1001A000653A73103D100D050000C3264410F43766
:1001B000A036E1346E10D024430065376410D3229A
:1001C0004E22DF29D521C322D329DF20C325A8143D
:1001D0000D05000029302807840020308500031811
:1001E000850A911EF12823001908800020002808A4
:1001F000A900A80A911280312628C729A0346E3A96
:10020000E533F230F4346F37203AE539F418A03989
:10021000F430723A20050D00C32BA027CE060A0049
:10022000C32BA02746230D05A026E1346E10F4371A
:10023000A021CF26A0060A00522CA027CE060A0035
:10024000E23A66336539A0316F39E531F4346F37FE
:10025000A01278100D050001EA3A73346937B1062F
:100260000A00EA3A73346937B2060A0063393D106E
:10027000253678162038EB1E2536F8060A00733A24
:100280006139F42F4324C521CB2FC32644050D002B
:100290006537E42F4324C521CB2FC32644050D0029
:1002A0004529D22752104329430021008D132200F3
:1002B0008D130830F8005C290000F8176F29F81337
:1002C0002300DE0C220003188D17031C8D137817F2
:1002D0006F297813F80B60296D2900008D17043001
:1002E0008400840B712974290000F81B5F29781B96
:1002F0006929200008000B088B132300951715149B
:1003000000000000891B8B1713087F390319B729D8
:10031000D8001108D9001208DA005808DE002000C1
:1003200055212300590891005A0892000B088B139D
:100330009517151400000000891B8B17130D140D61
:100340007F390319B729D8001108D9001208DA003B
:100350005808DE00200055212300590891005A0852
:100360009200910A0319920A20007B2923002000A1
:10037000080021008F1222008F1621000E1122008A
:100380000E1521008F1022008F1021000F11220066
:100390000F1121008F1122008F1121001E169E16B1
:1003A0001E139E131D141E109E101E1120302300BC
:1003B0008C000130900000308D008F00C0308B0425
:1003C00021009116A031200094282130850028308A
:1003D000840000080319FA290530F800F701F70B2B
:1003E000EF29F80BEE292E30F700F70BF529F82945
:1003F000800BEC29080022008F1064302300D80005
:100400002000E52122000F1164302300D8002000D5
:10041000E52122008F1164302300D8002000E5215F
:1004200008001030F80021001D08833978049D0071
:100430000F30F8001F08F03978049F000D30F700E6
:10044000F70B202A9D149D18232A1C08F9001B086D
:10045000F8001C08FA001C08F900200008008318A6
:10046000352A2130850031308400F701F801F90187
:10047000FA012300E101E201E301E4015F085E0407
:100480005D045C040319742A2030E5000310D80DC4
:10049000D90DDA0DDB0DE10DE20DE30DE40D5F0882
:1004A0006402031D5D2A5E086302031D5D2A5D0868
:1004B0006202031D5D2A5C086102031C6E2A5C084F
:1004C000E1025D08031C5D0FE2025E08031C5E0F83
:1004D000E3025F08031C5F0FE4020314F70DF80D3D
:1004E000F90DFA0DE50B462A610880006208813F8C
:1004F0006308823F6408833F200008002300AC01AA
:10050000AB01AA01A901AD012D08133C031C982AD7
:100510002000112278082300A9077908AA3D00309D
:10052000AB3DAC3D0D30F700F70B942AAD0A842AA1
:1005300083102C08DB002B08DA002A08D9002908D0
:10054000D800DF01DE01DD011430DC0020002F22A5
:1005500078082300AF007708AE002E08F8002F08B7
:10056000F900A0312000AA280B088B13230095174F
:10057000151400000000891B8B170318DA2A1308D2
:100580007F39DB001108DC001208DD005B08DE00AB
:100590002000552123005C0891005D0892000B08A3
:1005A0008B139517151400000000891B8B17D80BAF
:1005B000DA2AF42A130D140D7F39DB001108DC0050
:1005C0001208DD005B08DE002000552123005C08D6
:1005D00091005D089200910A0319920A0310D80B4A
:1005E000F22AF42A2000B42A2000080023003D0843
:1005F000F8013C020318FF2A3C08F7000B2BF70117
:100600000830BE00BC0DF70D3D0877020318F70057
:10061000F80DBE0B022B2000080020302300361EF0
:100620003030B8003508F700B51F1E2BF709F70A60
:100630007708B5002D30B800B61736143508BC0061
:100640006430BD002000F62277082300B50030306A
:100650007807B9003508BC000A30BD002000F6223A
:10066000303077072300BB0030307807BA003808F5
:10067000F700303039020319412BB614B61B36157A
:10068000552B3808B9002030B80030303A02031931
:100690004D2B3614B61BB614552B031D3614031DF3
:1006A000552B3908BA002030B90036195C2BB61822
:1006B000612B3618662B6B2B3808DE002000552185
:1006C00023003908DE002000552123003A08DE000F
:1006D0002000552123003B08DE00200055210800A2
:1006E0002300DA1B852B0F30F700590EF7050A306F
:1006F000770203187E2B3030F707802B5A08F70754
:100700007708DE002000552123000F30D9050A307C
:10071000590203188D2B30308F2BDA135A08D90762
:100720005908DE002000552108002300B008031DF1
:10073000192C20003A082200C90020003B082200A2
:10074000CA0020003C082200CB0020003D08220007
:10075000CC0020003E082200CD0020003F082200EF
:10076000CE00200040082200CF00200041082200D7
:10077000D000200042082200D100200043082200BF
:10078000D200200044082200D300200045082200A7
:10079000D400200046082200D5002000470822008F
:1007A000D6000D302300DE00200055210A30230042
:1007B000DE00200055212300B20132080D3C031C4D
:1007C000182CC93032078400203085000318850AB0
:1007D0000008B400953091000030920003100C30F6
:1007E000D8002000B42223003208B5001830B6002B
:1007F00020000D235D302300DE002000552109304C
:100800002300DE002000552123003408D900573092
:10081000DA00200070230D302300DE002000552177
:100820000A302300DE00200055212300B20ADD2B10
:10083000392C300B272C50302200CD00CE01CF01B7
:10084000D001D101D201D301D401382C23003008CA
:10085000023C031D392C59302200CD00CE0123006B
:1008600031082200CF00D001D101D201D301D4013F
:100870002300B30133080F3C031C6F2CC93033072E
:100880008400203085000318850A0008B40034086D
:10089000B50021008D1022008D100830F800502C7A
:1008A0000000F817632CF8132300B50C220003187E
:1008B0008D14031C8D107817632C7813F80B542CAF
:1008C000612C00008D1484308400840B652C0000A2
:1008D000F81B532C781B5D2C2300B30A3A2C200004
:1008E00008002300A408031DCD2C2308013C031C91
:1008F000CD2C031D852C2208863C031CCD2C031D0A
:10090000852C21089F3C031CCD2C20000D19C32CE5
:10091000D93071078400203085000318850A050846
:100920002300B3000408B20021000D1520000D19AA
:10093000972C0830F7002300B401F717AF2CF713FA
:10094000AF2C031020000D1903142300B40C7717EB
:10095000AF2C7713F70BA12C3408F800BB2C843094
:10096000F71B2430F800F80BB32CB62CF71B9F2C88
:10097000771BA92CA12C3308850032088400780845
:100980008000F10A200001302300A1070318A20A09
:100990000319A30A0319A40A722CF101A401A301EB
:1009A000A201A1012000080023006C08083C0319E3
:1009B000DD2CEE00EB0DEE0BDA2C21000F178F1360
:1009C0000F1222000F1223006C08EE00EB1BEB2C21
:1009D00022008F132300EB1FF02C22008F1723001F
:1009E000EB0D22000F16F80D20000F1F78100F1BC3
:1009F000781422000F122300EE0BE62C20000800D2
:100A000022008F124230F700F70B042D0000063051
:100A10002300EB000830EC000130ED002000D4246E
:100A200022008F16200008002300CA01CB01CC0150
:100A3000F801F901FA014308C400CB01CC01F80127
:100A4000F901FA014208C500CC01F801F901FA01E7
:100A50004108C600F801F901FA014008C70020006A
:100A6000002522008F120230F700F70B352D000011
:100A7000DC302300EB000830EC000130ED002000FA
:100A8000D42423004408EB000830EC000130ED00D2
:100A90002000D42423004508EB000830EC0001308E
:100AA000ED002000D42423004608EB000830EC00C1
:100AB0000130ED002000D42423004708EB0008306B
:100AC000EC000130ED002000D4240230F700F70BD9
:100AD000672D000022008F160C302300C800FA306A
:100AE000D8002000E5212300C80B6F2D200008004E
:100AF0002400110823006B0824009100140C031C2F
:100B00007E2D1108F700200008002300ED01EE0102
:100B1000EF01F801F901FA016308E400EE01EF01C9
:100B2000F801F901FA016208E500EF01F801F901A5
:100B3000FA016108E600F801F901FA016008E7002E
:100B400022000E110230F700F70BA42D0000133025
:100B50002300EB002000782523006408EB00200030
:100B6000782523006508EB0020007825230066081F
:100B7000EB002000782523006708EB002000782593
:100B800002302300EB002000782577082300E800DE
:100B900022000E1523006808F8002000080023003A
:100BA000D401D501D601F801F901FA014808CA00BB
:100BB000D501D601F801F901FA014708CB00D601A9
:100BC000F801F901FA014608CC00F801F901FA012F
:100BD0004508CD002000002522008F120230F700CA
:100BE000F70BF02D000012302300EB000830EC0072
:100BF0000130ED002000D42423004A08EB00083027
:100C0000EC000130ED002000D42423004B08EB0061
:100C10000830EC000130ED002000D42423004C0803
:100C2000EB000830EC000130ED002000D42423005C
:100C30004D08EB000830EC000130ED002000D4241A
:100C400023004908EB000830EC000130ED002000E3
:100C5000D42422008F162000080023003508C3008A
:100C60003408C2003308C1003208C0002000142537
:100C70002300BD01BC01BB01BA013D083902031CC0
:100C80008D2E031D532E3C083802031C8D2E031D90
:100C9000532E3B083702031C8D2E031D532E36089E
:100CA0003A0203188D2E3A083207C0003B08333D44
:100CB000C1003C08343DC2003D08353DC3003A0840
:100CC0003207C4003B08333DC5003C08343DC60034
:100CD0003D08353DC700E3004608E2004508E10055
:100CE0004408E0002000852578082300C40043085C
:100CF000C8004208C7004108C6004008C5004408B3
:100D0000C9002000CF2501302300BA070318BB0A11
:100D10000319BC0A0319BD0A3D2E20000800220059
:100D20008F1464302300D8002000E52122000F1129
:100D300064302300D8002000E52122008F116430A8
:100D40002300D8002000E521080020302300EF0018
:100D5000EB01EC01ED01EE016308FA006208F90015
:100D60006108F8006008F7000310771CC52E6408BE
:100D7000EB0765080318650FEC0766080318660F94
:100D8000ED0767080318670FEE07EE0CED0CEC0C8F
:100D9000EB0CFA0CF90CF80CF70CEF0BB42E20004E
:100DA00008002300ED01EE01EF01F801F901FA015D
:100DB0006308E400EE01EF01F801F901FA016208AD
:100DC000E500EF01F801F901FA016108E600F80118
:100DD000F901FA016008E70022008F120230F700E3
:100DE000F70BF02E000013302300EB000830EC006E
:100DF0000130ED002000D42423006408EB0008300B
:100E0000EC000130ED002000D42423006508EB0045
:100E10000830EC000130ED002000D42423006608E7
:100E2000EB000830EC000130ED002000D42423005A
:100E30006708EB000830EC000130ED002000D424FE
:100E400001302300EB000830EC000130ED00200001
:100E5000D42478082300E80022008F1623006808B5
:100E6000F800200008002300DE01DD01FF30DC0077
:100E7000DB00E201E1018430E0000830DF00EB013B
:100E8000EA01E901E801EB08031DD52FEA08031D7B
:100E9000D52FE908031DD52F5A0868020318D52F4E
:100EA0003C306807F8002130693DFA0078082500D9
:100EB000B4007A08B5002300580868078400590870
:100EC000693D850000082500B60035088500340816
:100ED0008400360880002300E701E601E501E40113
:100EE000E708031DCC2FE608031DCC2FE508031DE2
:100EF000CC2F6408073C031CCC2F3C3068078400CF
:100F00002130693D850000085B062500B400230000
:100F10005C082500B50023005D082500B60023000D
:100F20005E082500B700340801392300E3000310F0
:100F3000DE0CDD0CDC0CDB0C630BA62F5F08DB0684
:100F40006008DC066108DD066208DE063C306807E2
:100F5000F8002130693DFA0078082500B4007A08CD
:100F6000B5003C302300680784002130693D8500CE
:100F70000310000C2500B6003508850034088400F5
:100F80003608800001302300E4070318E50A03193E
:100F9000E60A0319E70A702F0130E8070318E90A87
:100FA0000319EA0A0319EB0A432FFF30DB06DC06BC
:100FB0005B08F8005C08F90020000800111EDE2F15
:100FC00023009A00200008002300B10131080D3CE5
:100FD000031CF42F1A3031078400203085000318D9
:0E0FE000850A8001B10AE62F2000C801080032
:101000002300B908031D5628BA08031D5628BB083B
:10101000031D5628BC08031D562883103808DB0022
:101020003708DA003608D9003508D800DF01DE01BC
:10103000DD015130DC00803120002F2288317A0818
:101040002300DB007908DA007808D9007708D80097
:1010500001305807BE000030593DBF0000305A3DF6
:10106000C00000305B3DC1004B3091000030920069
:1010700003102230D80080312000B42288312300B0
:101080003E08D9005730DA008031200070238831C3
:101090005D30230091000030920003101430D8001E
:1010A00080312000B42288318A282300B508031D2E
:1010B0008B28B608031D8B28B708031D8B28B8089A
:1010C000031D8B283C08C1003B08C0003A08BF0044
:1010D0003908BE00683091000030920003102230C1
:1010E000D80080312000B422883123003908D9008B
:1010F0005730DA0080312000702388317A302300A5
:1011000091000030920003101430D800803120008C
:10111000B42288312300C501C401C3010130C200DB
:1011200045084102031C412A031DA6284408400229
:10113000031C412A031DA62843083F02031C412A21
:10114000031DA62842083E02031C412A4A30210002
:10115000AA004730AB003630AC005930AD00423009
:10116000AE005730AF003030B0004A30B1004730E9
:10117000B2003630B3005930B4004D30B5005830AD
:10118000B6003030B7003E30B800F030B900FF3064
:10119000BA00F030BB00FF30BC002300440821003F
:1011A000BD00230043082100BE00230042082100A7
:1011B000BF0023003D0B5729C901C801C7011630E4
:1011C000C600C908031D5729C808031D5729C708A9
:1011D000031D57294608663C031C57295A30460709
:1011E000D8002030473DD90001304202F7000030DE
:1011F000433BF8000030443BF9000030453BFA0027
:10120000DD007908DC007808DB007708DA000508E3
:10121000DF000408DE00E301E201E1015130E000FB
:101220005D08E7005C08E6005B08E5005A08E4009A
:1012300080312000A526883123005F0885005E08E4
:10124000840077083107DA007808323DDB0079083E
:10125000333DDC007A08343DDD004608DA074708F4
:10126000DB3D4808DC3D4908DD3D1630DA02003040
:10127000DB3BDC3BDD3B5D08E3005C08E2005B0838
:10128000E1005A08E00080312000D1268831230097
:101290005908850058088400780880000130C60786
:1012A0000318C70A0319C80A0319C90AE128BD08A7
:1012B000031DD529CD01CC01CB011630CA00CD08C4
:1012C000031DD529CC08031DD529CB08031DD5291D
:1012D0004A08663C031CD5295A304A07D8002030FA
:1012E0004B3DD90001304202F7000030433BF8008B
:1012F0000030443BF9000030453BFA00DD0079083E
:10130000DC007808DB007708DA000508DF00040855
:10131000DE00E301E201E1015130E0005D08E70099
:101320005C08E6005B08E5005A08E4008031200014
:10133000A526883123005F0885005E0884007708B1
:101340003107DA007808323DDB007908333DDC00F4
:101350007A08343DDD004A08DA074B08DB3D4C08CB
:10136000DC3D4D08DD3D1630DA020030DB3BDC3B76
:10137000DD3B5D08E3005C08E2005B08E1005A0821
:10138000E000803120008525883123005908850040
:1013900058088400780880000130CA070318CB0A77
:1013A0000319CC0A0319CD0A5F292030D9005A301D
:1013B000D8006730DA00803120003327883179087F
:1013C0002300CF007808CE004E082200C100230081
:1013D0004F082200C20085302300910000309200A7
:1013E000803120007B2188312300D0015008683CE7
:1013F000031C232A5A30500784002030850003182C
:10140000850A0008D800580880312000DE2788317E
:101410005A30230050078400203085000318850AC5
:101420000008D800D9005730DA008031200070233E
:10143000883120302300DE008031200055218831A2
:101440002300D00AF6290D30DE008031200055211E
:1014500088310A302300DE00803120005521883198
:10146000DC302300D80080312000E52188310130B4
:101470002300C2070318C30A0319C40A0319C50AC3
:101480009028200008002300B1013108103C031C03
:10149000532A293031078400203085000318850A3B
:1014A0008001B10A452A200008004908423C031D7A
:1014B0007E2A2300A90129080D3C031C7B2A1A302F
:1014C0002907F8002030FA000318FA0A7808B1005A
:1014D0007A08B200293029078400203085000318DB
:1014E000850A0008B30032088500310884003308FB
:1014F0008000A90A5B2A2000A80143224A08423C36
:10150000031DA82A2300AA012A080D3C031CA52AB2
:101510001A302A07F8002030FA000318FA0A78086F
:10152000B1007A08B20001302A07293E8400203039
:1015300085000318850A0008B300320885003108C9
:10154000840033088000AA0A842A2000A8014322CC
:101550004B08423C031DD22A2300AB012B080D3C53
:10156000031CCF2A1A302B07F8002030FA0003188A
:10157000FA0A7808B1007A08B20002302B07293E37
:101580008400203085000318850A0008B300320863
:1015900085003108840033088000AB0AAE2A2000A1
:1015A000A80143224C08423C031DFC2A2300AC0145
:1015B0002C080D3C031CF92A1A302C07F8002030A7
:1015C000FA000318FA0A7808B1007A08B20003306A
:1015D0002C07293E8400203085000318850A000866
:1015E000B300320885003108840033088000AC0A5B
:1015F000D82A2000A80143224D08423C031D262B77
:101600002300AD012D080D3C031C232B1A302D07A0
:10161000F8002030FA000318FA0A7808B1007A08B6
:10162000B20004302D07293E8400203085000318C5
:10163000850A0008B30032088500310884003308A9
:101640008000AD0A022B2000A80143222030230095
:10165000D9001A30D8000C30DA008031200033274E
:10166000883179082200C6007808C5008F30230031
:10167000910000309200803120007B2188312300CE
:10168000AE012E080D3C031C5F2B1A302E07840080
:10169000203085000318850A0008B100D9005730B2
:1016A000DA00803120007023883120302300DE00F2
:1016B00080312000552188312300AE0A412B0D30A6
:1016C000DE0080312000552188310A302300DE0001
:1016D000803120005521883147082200C8002000B1
:1016E00046082200C70020003B08F000A0318D2AE8
:1016F0004A30DA004730DB003630DC005930DD009C
:101700004230DE005730DF003030E0004A30E10088
:101710004730E2003630E3005930E4004D30E50058
:101720005830E6003030E7003E30E800F030E900A5
:10173000AA30EA000330EB003B08EC003C08ED0067
:101740003D08EE003E08EF003F082100A000200009
:1017500040082100A100200041082100A200200033
:1017600042082100A300200043082100A40020001B
:1017700044082100A500200045082100A600AA3049
:10178000A70020302300D9003A30D8001E30DA00FC
:10179000803120003327883179082300B20078088F
:1017A000B10031082100A800230032082100A9005F
:1017B0008F1022008F1408302300B400FA30D800B4
:1017C00080312000E52188312300B40BDE2BB301EA
:1017D00033081F3C031C3E2C3A3033078400203072
:1017E00085000318850A0008B40034088031200001
:1017F000DE2788313A30230033078400203085000B
:101800000318850A0008B4004130910000309200AE
:1018100003100930D80080312000B4228831230021
:101820003308B5001830B600803120000D23883110
:101830004630230091000030920003140430D80099
:1018400080312000B422883123003408D900573079
:10185000DA0080312000702388310A302300DE0056
:1018600080312000552188310D302300DE00803189
:101870002000552188312300B30AE82B0230B40040
:10188000FA30D80080312000E52188312300B40BE4
:10189000402C21008F1022008F1020000800782398
:1018A000DD302300910000309200803120007B2148
:1018B00088312300A9012908593C031C692C0230F6
:1018C000D80080312000E521883164002300A90A76
:1018D0005B2C80312000E4278831A031D32A4A30A4
:1018E000DA004730DB003630DC005930DD004230B2
:1018F000DE005730DF003030E0004A30E100473092
:10190000E2003630E3005930E4004D30E500583055
:10191000E6003030E7003E30E800F030E900AA3061
:10192000EA000330EB003B08EC003C08ED006930B6
:10193000EE00EF002100A000A100A200A300A4007F
:10194000A500A600AA30A70020302300D9003A3015
:10195000D8001E30DA008031200033278831790822
:101960002300B1007808B00030082100A80023004F
:1019700031082100A9008F1022008F1408302300A5
:10198000B300FA30D80080312000E52188312300EF
:10199000B30BC12CB20132081F3C031CE02C3A30BF
:1019A00032078400203085000318850A0008B30040
:1019B000330880312000DE2788312300B20ACB2C87
:1019C0000230B300FA30D80080312000E5218831A0
:1019D0002300B30BE22C21008F1022008F10200077
:1019E000080045082300A9002908783C031C0F2D96
:1019F000200078232300AA0129082A0203180E2DAB
:101A00001430AB00FA30D80080312000E521883155
:101A10002300AB0B022D6400AA0AFC2C122D20001F
:101A20006F24230080312000E4278831A031472B28
:101A30003D08103C0319202D3D08113C031DE02DED
:101A4000A0302300910000309200803120007B21E3
:101A500088313E082300AC0020003F082300AB0083
:101A6000200040082300AA00200041082300A9000C
:101A7000200042082300B000200043082300AF00EC
:101A8000200044082300AE00200045082300AD00DC
:101A9000803120008F26883104302300B100FA30D5
:101AA000D80080312000E52188312300B10B4F2D73
:101AB00020003D08103C031D792D23002C08B400A4
:101AC0002B08B3002A08B2002908B100B801B701F9
:101AD000B601B5013008BC002F08BB002E08BA00C3
:101AE0002D08B9000130BD00200000208031E4271E
:101AF00088313D08113C031DD02DAD3023009100ED
:101B000000309200803120007B218831B4302300E6
:101B100091000030920003100E30D8008031200078
:101B2000B422883123002908DE00803120005521AD
:101B30008831BD30230091000030920003100B303B
:101B4000D80080312000B422883123002D08DE0027
:101B5000803120005521883123002C08B4002B0847
:101B6000B3002A08B2002908B100B801B701B601D4
:101B7000B5013008BC002F08BB002E08BA002D08A4
:101B8000B900BD01200000208031E4278831C43035
:101B90002300910000309200803120007B218831A9
:101BA00002302300B100FA30D80080312000E52156
:101BB00088312300B10BD32D80312000FB218831E7
:101BC000A031532B3D08133C0319EA2D3D08143C6A
:101BD000031D722E3E082300AC0020003F082300A6
:101BE000AB00200040082300AA0020004108230089
:101BF000A900200042082300B00020004308230071
:101C0000AF00200044082300AE0020004508230058
:101C1000AD00803120008F26883104302300B100D0
:101C2000FA30D80080312000E52188312300B10B43
:101C3000102E20003D08133C031D432E23002C08CA
:101C4000B4002B08B3002A08B2002908B1003008FC
:101C5000B8002F08B7002E08B6002D08B500BC014B
:101C6000BB01BA01B9010130BD0020000020C9301C
:101C70002300910000309200803120007B218831C8
:101C80008031E42788313D08143C031D622E230077
:101C90002C08B4002B08B3002A08B2002908B100B0
:101CA0003008B8002F08B7002E08B6002D08B50080
:101CB000BC01BB01BA01B901BD0120000020803187
:101CC000E427883102302300B100FA30D800803197
:101CD0002000E52188312300B10B652E80312000E2
:101CE000FB218831A031562B3E082300AD00200097
:101CF0003F082300AC00200040082300AB00200078
:101D000041082300AA00200042082300B10020005F
:101D100043082300B000200044082300AF00200047
:101D200045082300AE004A302100AA004730AB002E
:101D30003630AC005930AD004230AE005730AF0005
:101D40003030B0004A30B1004730B2003630B30016
:101D50005930B4004D30B5005830B6003030B700BF
:101D60003E30B800F030B900FF30BA00F030BB00B0
:101D7000FF30BC00230030082100BD0023002F08E5
:101D80002100BE0023002E082100BF002300290BE4
:101D9000482FB501B401B3011630B200B508031DD8
:101DA000482FB408031D482FB308031D482F3208DD
:101DB000663C031C482F5A303207F8002030333D70
:101DC000FA007808C0007A08C10001302E02F7003E
:101DD00000302F3BF8000030303BF9000030313B41
:101DE000FA00C5007908C4007808C3007708C2006B
:101DF0000508C7000408C600E301E201E101513013
:101E0000E0004508E7004408E6004308E500420812
:101E1000E40080312000A526883123004708850092
:101E20004608840077082A07C20078082B3DC300C3
:101E300079082C3DC4007A082D3DC5003208C20740
:101E40003308C33D3408C43D3508C53D1630C202D1
:101E50000030C33BC43BC53B4508E3004408E200F7
:101E60004308E1004208E00080312000D12688319B
:101E70002300410885004008840078088000013074
:101E8000B2070318B30A0319B40A0319B50ACE2E10
:101E9000A908031DCA2FB901B801B7011630B60051
:101EA000B908031DCA2FB808031DCA2FB708031DA0
:101EB000CA2F3608663C031CCA2F5A303607F80072
:101EC0002030373DFA007808C0007A08C1000130A0
:101ED0002E02F70000302F3BF8000030303BF900B5
:101EE0000030313BFA00C5007908C4007808C3000F
:101EF0007708C2000508C7000408C600E301E20134
:101F0000E1015130E0004508E7004408E6004308DD
:101F1000E5004208E40080312000A5268831230036
:101F2000470885004608840077082A07C200780819
:101F30002B3DC30079082C3DC4007A082D3DC50017
:101F40003608C2073708C33D3808C43D3908C53DC7
:101F50001630C2020030C33BC43BC53B4508E3001A
:101F60004408E2004308E1004208E000803120001C
:101F700085258831230041088500400884007808C1
:101F800080000130B6070318B70A0319B80A03190D
:101F9000B90A502F2030D9005A30D8006730DA0003
:101FA000803120003327883179082300BB0078086E
:101FB000BA003A082200C10023003B082200C200F8
:101FC0002300BC013C08683C031CF72F5A303C0737
:101FD0008400203085000318850A0008C0004008EE
:101FE00080312000DE2788312300BC0AE22FC83070
:0C1FF000D80080312000E5218831080075
:102000003D08153C031908283D08163C031D4328CC
:1020100080318F26903104302300A900FA30D80097
:1020200080312000E52190312300A90B0E282000EB
:102030003D08153C031D262801302300A9008831E6
:102040002000742690318031E42790313D08163C01
:10205000031D33282300A901883120007426903104
:102060008031E427903102302300A900FA30D800F3
:1020700080312000E52190312300A90B36288031E2
:102080002000FB219031A031592B3D08353C031D28
:10209000BA283E082300AC0020003F082300AB0014
:1020A000200040082300AA00200041082300A900C6
:1020B000200044082300AE00200045082300AD00A6
:1020C0000230B000200042082300B100803120001F
:1020D0009523903180317124903108302300AF0076
:1020E000FA30D80080312000E52190312300AF0B79
:1020F000702822006508663C031DB6288031200048
:102100008F26903104302300AF00FA30D8008031A0
:102110002000E52190312300AF0B85282C08B40066
:102120002B08B3002A08B2002908B100B801B70192
:10213000B601B501BC01BB012E08BA002D08B900DB
:10214000BD01883120000020903102302300AF0013
:10215000FA30D80080312000E52190312300AF0B08
:10216000A82880312000FB219031220080312000FE
:10217000E4279031A0315C2B013023003202D000E3
:102180003108D1005008D200F701F80151080310BE
:102190005218F707F70CF80CD218F707F70CF80CE1
:1021A0005219F707F70CF80CD219F707F70CF80CCF
:1021B000521AF707F70CF80CD21AF707F70CF80CBD
:1021C000521BF707F70CF80CD21BF707F70CF80CAB
:1021D000B701B601B5017808B400E301E201E101FD
:1021E0005130E0003708E7003608E6003508E50022
:1021F0003408E40080312000A526903177082300C0
:102200002D07B80078082E3DB90079082F3DBA0097
:102210007A08303DBB00BF01BE01BD010130BC00EA
:10222000BF08031D922ABE08031D922ABD08031D84
:10223000922A3C083102031C922A4A302100AA004B
:102240004730AB003630AC005930AD004230AE0004
:102250005730AF003030B0004A30B1004730B200E4
:102260003630B3005930B4004D30B5005830B600A8
:102270003030B7003E30B800F030B900FF30BA005F
:10228000F030BB00FF30BC0023003E082100BD0041
:1022900023003D082100BE0023003C082100BF00B0
:1022A0002300330BD329C301C201C1011630C00082
:1022B000C308031DD229C208031DD229C108031D6A
:1022C000D2294008663C031CD2295A304007F80046
:1022D0002030413DFA007808D0007A08D100013062
:1022E0003C02F70000303D3BF80000303E3BF90077
:1022F00000303F3BFA00D5007908D4007808D300BD
:102300007708D2000508D7000408D600E301E201EF
:10231000E1015130E0005508E7005408E600530899
:10232000E5005208E40080312000A526903123000A
:10233000570885005608840077083807D2007808C7
:10234000393DD30079083A3DD4007A083B3DD500A9
:102350004008D2074108D33D4208D43D4308D53D4B
:102360001630D2020030D33BD43BD53B5508E300B6
:102370005408E2005308E1005208E00080312000D8
:10238000D126903123005108850050088400780838
:1023900080000130C0070318C10A0319C20A0319DB
:1023A000C30A5829552AB308031D552AC701C60177
:1023B000C5011630C400C708031D552AC608031DF1
:1023C000552AC508031D552A4408663C031C552A96
:1023D0005A304407F8002030453DFA007808D00014
:1023E0007A08D10001303C02F70000303D3BF80094
:1023F00000303E3BF90000303F3BFA00D500790841
:10240000D4007808D3007708D2000508D700040864
:10241000D600E301E201E1015130E0005508E70098
:102420005408E6005308E5005208E400803120001B
:10243000A5269031230057088500560884007708A8
:102440003807D2007808393DD30079083A3DD400E6
:102450007A083B3DD5004408D2074508D33D4608DD
:10246000D43D4708D53D1630D2020030D33BD43B93
:10247000D53B5508E3005408E2005308E100520838
:10248000E00080312000852590312300510885002F
:1024900050088400780880000130C4070318C50A7A
:1024A0000319C60A0319C70ADB292030D9005A309C
:1024B000D8006730DA008031200033279031790866
:1024C0002300C9007808C80048082200C100230082
:1024D00049082200C2002300CA014A08683C031CC4
:1024E000822A5A304A078400203085000318850A62
:1024F0000008D000500880312000DE2790312300F2
:10250000CA0A6D2AC830D80080312000E5219031F8
:1025100001302300BC070318BD0A0319BE0A0319C2
:10252000BF0A1029200008003D08443C031DE62A8C
:102530003E082300AC0020003F082300AB00200031
:1025400040082300AA00200041082300A90002300F
:10255000B000200042082300B10080312000952304
:10256000903180318F26903104302300AD00FA3055
:10257000D80080312000E52190312300AD0BB72A2F
:102580002C08B0002B08AF002A08AE002908AD00C7
:10259000200045082300B100200044082300B200B9
:1025A000B3012000BC208031E427903102302300A9
:1025B000AD00FA30D80080312000E52190312300B1
:1025C000AD0BD92A80312000FB219031A0315F2B47
:1025D0003D08403C0319F02A3D08413C031D582B9F
:1025E0003E082300AC0020003F082300AB00200081
:1025F00040082300AA00200041082300A9008031E0
:1026000020008F26903104302300AD00FA30D8002E
:1026100080312000E52190312300AD0B062B2000F6
:102620003D08403C031D2D2B23002C08B0002B0837
:10263000AF002A08AE002908AD002000450823009D
:10264000B100200044082300B2000130B300200094
:10265000BC208031E4279031482B3D08413C031DCC
:10266000482B23002C08B0002B08AF002A08AE002E
:102670002908AD00200045082300B10020004408CF
:102680002300B200B3012000BC208031E427903148
:1026900002302300AD00FA30D80080312000E5215F
:1026A00090312300AD0B4B2B80312000FB2190316A
:1026B000A031622B3D08303C031D442C4A30DA0027
:1026C0004730DB003630DC005930DD004230DE00C0
:1026D0005730DF003030E0004A30E1004730E200A0
:1026E0003630E3005930E4004D30E5005830E60064
:1026F0003030E7003E30E800F030E900AA30EA0070
:102700000330EB003B08EC003C08ED001430F8000F
:1027100021001D08833978049D000F30F8001F0840
:10272000F03978049F000D30F700F70B952B9D14BE
:102730009D18982B1C08F9001B08F8001C08FA00CB
:102740001C08F90079082300AA007808A900AE0146
:10275000AD01AC01AB01AF012F08633C031CC22BE0
:10276000803120001122903178082300AB077908CE
:10277000AC3D0030AD3DAE3D8530F700F70BBE2BD4
:10278000AF0AAC2B83102E08DB002D08DA002C08D2
:10279000D9002B08D800DF01DE01DD016430DC0048
:1027A000803120002F22903178082300B100770873
:1027B000B00020003D08EE00DD30EF0023003108BE
:1027C0002100A000230030082100A100DD30A2007C
:1027D000A30023002A082100A400230029082100C7
:1027E000A500DD30A600AA30A70020302300D900C4
:1027F0003A30D8001E30DA00803120003327903183
:1028000079082300B3007808B20032082100A8003C
:10281000230033082100A9008F1022008F140830F4
:102820002300B500FA30D80080312000E521903136
:102830002300B50B122CB40134081F3C031C312CAF
:102840003A3034078400203085000318850A0008D8
:10285000B500350880312000DE2790312300B40A0E
:102860001C2C0230B500FA30D80080312000E52160
:1028700090312300B50B332C21008F1022008F10D4
:1028800080312000E4279031A031652B3D08273CA2
:10289000031D052D3E082300AC0020003F08230047
:1028A000AB00200040082300AA00200041082300BC
:1028B000A900200044082300AE00200045082300A2
:1028C000AD000230B000200042082300B10080318A
:1028D00020009523903180317124903122006508C9
:1028E000663C031DDE2C23002E08B1002D08B0002D
:1028F000B3015130B2001030B400F701FA01B10C4D
:10290000B00C031C892C3208F7070318FA0A3308A5
:10291000FA07FA0CF70CF90CF80CB40B7F2C7908B9
:10292000B1007808B0002C08B5002B08B4002A08C4
:10293000B3002908B200B901B8013108B700300866
:10294000B600803120002D26903180318F269031C5
:1029500004302300B000FA30D80080312000E52197
:1029600090312300B00BAB2C2C08B4002B08B30023
:102970002A08B2002908B100B801B701B601B501B3
:10298000BC01BB012E08BA002D08B9000130BD0002
:10299000883120000020903102302300B000FA304E
:1029A000D80080312000E52190312300B00BCF2CDE
:1029B00080312000FB219031022D22008031200047
:1029C0008F26903104302300B000FA30D8008031D7
:1029D0002000E52190312300B00BE52C8831200048
:1029E0006F24903102302300B000FA30D8008031DB
:1029F0002000E52190312300B00BF52C8031200020
:102A0000FB2190318031E4279031A031682B3D08C3
:102A1000173C031D4A2D8831782390313E0823004E
:102A2000AC0020003F082300AB002000400823003A
:102A3000AA00200041082300A9002000420823002A
:102A4000B000200043082300AF002000440823000A
:102A5000AE00200045082300AD002C08B5002B086F
:102A6000B4002A08B3002908B2003008B9002F08C2
:102A7000B8002E08B7002D08B600803120002D26A2
:102A800090318831782390318031E4279031803142
:102A9000FB219031A0316B2B3D08223C031DAD2D55
:102AA0003E082300AC0020003F082300AB002000BC
:102AB00040082300AA00200041082300A9002000AC
:102AC00044082300AE00200045082300AD0002307A
:102AD000B000200042082300B1008031200095237F
:102AE000903180317124903122006508663C031DCD
:102AF000A32D883120007823903104302300B000CA
:102B0000FA30D80080312000E52190312300B00B4D
:102B1000802D2D08B100B0012C08B5002B08B400A1
:102B20002A08B3002908B200B901B8012D08B7007E
:102B30003008B600803120002D269031883178236E
:102B40009031A72D2200883120006F2490318031F0
:102B5000E42790318031FB219031A0316E2B3D086C
:102B6000423C031DE22D450BB62DBE2D4508053C0C
:102B70000319BE2D45080A3C031DE22D0230230037
:102B8000B000200045082300B100803120009523CB
:102B9000903180317124903122006508663C031D1C
:102BA000D62D88312000782390312200E508031DBE
:102BB000DE2D883120006F249031220080312000EA
:102BC000E4279031A031712B3D08A03C031D112E4C
:102BD000D5302300910000309200803120007B210D
:102BE00090312300B001B101803120009523903154
:102BF00080317124903122006508663C031D052E4A
:102C000088312000782390312200E508031D0D2E25
:102C1000883120006F249031220080312000E42789
:102C20009031A0318B2B22008F15B4302300D800B7
:102C300080312000E521903122008F113C302300AB
:102C4000D80080312000E5219031080022008F1546
:102C50003C302300D80080312000E5219031220053
:102C60008F113C302300D80080312000E5219031C5
:102C7000080022008F11B4302300D80080312000DA
:102C8000E5219031080013262626262626263926F9
:102C9000080026262626392608002626132626265C
:102CA0003926080013262626262639260800262639
:102CB00026262626392608002626262626262626E5
:102CC000132639260800262613261326132639260E
:102CD0000800132613262626392608001326262642
:102CE00026262626262639260800132626261326DB
:102CF0001326392608001326132639260800132622
:102D0000262626261326392608003D08203C031DCA
:102D1000F92E2300C301C201C101C001803120008E
:102D2000142590312300C801C701C601C501200048
:102D300044082300C90080312000CF2590312300B2
:102D4000C801C701C6010130C50020003E082300AC
:102D5000C90080312000CF2590312300C801C70170
:102D6000C6010230C50020003F082300C9008031A1
:102D70002000CF2590312300C801C701C6010330D0
:102D8000C500200040082300C90080312000CF2565
:102D900090312300C801C701C6010430C5002000DE
:102DA00041082300C90080312000CF259031230045
:102DB000C801C701C6010530C50020004208230034
:102DC000C90080312000CF2590312300C801C70100
:102DD000C6010630C500200043082300C900803129
:102DE0002000CF2590318831782390318031E4273D
:062DF0009031A031912B8F
:103000002300AC08031908282C08303C031D1D2898
:103010009031200013269831903113269831903149
:103020001326983190311326983190311326983118
:10303000903139269831B32A23002C0B20282428DC
:103040002C08313C031D3928903120002626983168
:1030500090311326983190311326983190311326F0
:103060009831903113269831903139269831B32A0E
:1030700023002C08023C031941282C08323C031D74
:1030800056289031200026269831903126269831F6
:1030900090311326983190311326983190311326B0
:1030A0009831903139269831B32A23002C08033CFB
:1030B00003195E282C08333C031D7328903120002F
:1030C000262698319031262698319031262698313F
:1030D000903113269831903113269831903139264A
:1030E0009831B32A23002C08043C03197B282C08B0
:1030F000343C031D8128903120005C269831B32A8E
:1031000023002C08053C031989282C08353C031D95
:103110009E2890312000262698319031262698311D
:1031200090312626983190312626983190312626E6
:103130009831903139269831B32A23002C08063C67
:103140000319A6282C08363C031DAC28903120001A
:103150006E269831B32A23002C08073C0319B428A3
:103160002C08373C031DC9289031200013269831C4
:1031700090311326983190312626983190312626A9
:103180009831903126269831903139269831B32ADA
:1031900023002C08083C0319D1282C08383C031DB7
:1031A000E62890312000132698319031132698316B
:1031B0009031132698319031262698319031262669
:1031C0009831903139269831B32A23002C08093CD4
:1031D0000319EE282C08393C031D032990312000E7
:1031E0001326983190311326983190311326983157
:1031F0009031132698319031262698319031392616
:103200009831B32A23002C080A3C03190B292C08F7
:10321000613C031D172990312000262698319031FA
:1032200013269831903139269831B32A23002C087F
:103230000B3C03191F292C08623C031D25299031E2
:10324000200043269831B32A23002C080C3C031994
:103250002D292C08633C031D3F29903120001326A3
:10326000983190312626983190311326983190313B
:1032700026269831903139269831B32A23002C081C
:103280000D3C031947292C08643C031D4D2990313E
:10329000200052269831B32A23002C080E3C031933
:1032A00055292C08653C031D5E29903120002626F7
:1032B0009831903139269831B32A23002C080F3CDD
:1032C000031966292C08663C031D782990312000DB
:1032D0002626983190312626983190311326983140
:1032E000903126269831903139269831B32A23001F
:1032F0002C08673C031D82299031200069269831F3
:10330000B32A23002C08683C031D98299031200023
:1033100026269831903126269831903126269831EC
:10332000903126269831903139269831B32A2300DE
:103330002C08693C031DA2299031200049269831B0
:10334000B32A23002C086A3C031DAC2990312000CD
:1033500063269831B32A23002C086B3C031DBF2938
:1033600090312000132698319031262698319031E3
:1033700013269831903139269831B32A23002C082E
:103380006C3C031DD52990312000262698319031C0
:10339000132698319031262698319031262698317F
:1033A000903139269831B32A23002C086D3C031D37
:1033B000DF29903120007B269831B32A23002C0886
:1033C0006E3C031DEF299031200013269831903177
:1033D00026269831903139269831B32A23002C08BB
:1033E0006F3C031D022A9031200013269831903142
:1033F000132698319031132698319031392698311F
:10340000B32A23002C08703C031D182A9031200099
:103410002626983190311326983190311326983111
:10342000903126269831903139269831B32A2300DD
:103430002C08713C031D2E2A903120001326983150
:1034400090311326983190312626983190311326E9
:103450009831903139269831B32A23002C08723CD8
:10346000031D382A903120004D269831B32A2300BD
:103470002C08733C031D422A9031200057269831B6
:10348000B32A23002C08743C031D4F2A90312000DE
:1034900013269831903139269831B32A23002C080D
:1034A000753C031D622A9031200026269831903108
:1034B000262698319031132698319031392698314B
:1034C000B32A23002C08763C031D782A9031200073
:1034D000262698319031262698319031262698312B
:1034E000903113269831903139269831B32A230030
:1034F0002C08773C031D8B2A90312000262698311A
:103500009031132698319031132698319031392615
:103510009831B32A23002C08783C031D952A90315A
:1035200020007F269831B32A23002C08793C031D04
:103530009F2A9031200075269831B32A23002C0849
:103540007A3C031DB42A9031200013269831903123
:1035500013269831903126269831903126269831BD
:103560009031392698312300200008003D08213C85
:10357000031D532C22008F1064302300D8008031AB
:103580002000E521983122000F1564302300D80077
:1035900080312000E521983122008F116430230012
:1035A000D80080312000E521983102302300A900A5
:1035B000FA30D80080312000E52198312300A90B92
:1035C000D82A9031200043269831903149269831ED
:1035D00090314D26983190315226983190315726AE
:1035E000983190315C26983102302300A900FA30DE
:1035F000D80080312000E52198312300A90BF72A5B
:1036000090312000632698319031692698319031AD
:103610006E26983190317526983190317B269831FD
:1036200090317F26983102302300A900FA30D8006B
:1036300080312000E52198312300A90B162BE301EE
:10364000E201E101E00180312000D1269831780FBC
:10365000692B73302300AC00200000206930230068
:10366000AC00200000202B0E2300AA00AB010F307D
:10367000AA05AA05AB012A08AC00200000202B08EF
:103680002300AA00AB010F30AA05AB012A08AC0049
:10369000200000202B0C2300AB0020002A0C23006C
:1036A000AA00AB0CAA0CAB0CAA0CAB0CAA0C0F30EA
:1036B000AB05AA05AB012A08AC00200000202A08AF
:1036C0000F392300AA00AB012A08AC00200000201B
:1036D000C92B2300E301E201E1010130E000803168
:1036E0002000D126983178082300AA00AC002000E1
:1036F00000202300E301E201E1010230E00080311B
:103700002000D126983178082300AA00AC002000C0
:1037100000202300E301E201E1010330E0008031F9
:103720002000D126983178082300AA00AC002000A0
:1037300000202300E301E201E1010430E0008031D8
:103740002000D126983178082300AA00AC00200080
:1037500000202300E301E201E1010530E0008031B7
:103760002000D126983178082300AA00AC00200060
:1037700000202300E301E201E1010630E000803196
:103780002000D126983178082300AA00AC00200040
:10379000002002302300A900FA30D8008031200038
:1037A000E52198312300A90BCC2B22005A08503C6C
:1037B000031D0E2C5B08F039F700770EF2000F3076
:1037C000F2055B080F39F3005C08F039F700770E5B
:1037D000F4000F30F4055C080F39F5005D08F0398E
:1037E000F700770EF6000F30F6055D080F39FB0085
:1037F0005E08F039F700770EFC000F30FC055E081C
:103800000F39FD005F08F039F700770EFE000F302A
:10381000FE055F080F392300A5002200720823006F
:10382000AC002000002073082300AC002000002022
:1038300074082300AC002000002075082300AC00B1
:103840002000002076082300AC00200000207B0828
:103850002300AC00200000207C082300AC002000E6
:1038600000207D082300AC00200000207E082300FB
:10387000AC002000002023002508AC002000002020
:1038800002302300A900FA30D80080312000E52161
:1038900098312300A90B432C80312000FB21983163
:0A38A0008031E4279831A0318E2B0F
:10400000A80121008D1322008D1723009F15A030D9
:104010009B0001309C00A6309E0090309D00210046
:104020008D1122008D1521008D1022008D1421008C
:104030000F178F130F1222000F1224009512403019
:104040009400093092002A30950022009D129D11A3
:104050001D1221008E120E168E112000AF01AE012E
:10406000AD01AC01B301B201B101B001B401B801BD
:10407000B701B601B5015130B900C8012200C40131
:10408000C301F1012300A401A301A201A101F201D6
:10409000F301F401F501F601FB01FC01FD01FE0154
:1040A000A5010130A600A7018C018D018E018F01B1
:1040B00090012200920191016F280E3460341A346D
:1040C000003401342034C934AA340E34C0340034EE
:1040D00001348034BB341834C03400340034203010
:1040E00085005D30840085171200F700003A03193F
:1040F00089281200F800F81B81283F398700120038
:104100008600781B1200781F12001E00F70B832810
:104110007428FD302300910000309200803120008F
:104120007B21A0318031B929A031253021009700B1
:1041300014302300A900FA30D80080312000E52196
:10414000A0312300A90B9B2880312000FB21A03146
:1041500080317E2AA0317908AB007808AA000130AE
:104160002300B000B101803120009523A0318031BF
:104170007124A0310C302300910001309200803175
:1041800020007B21A0316400103023009100013019
:104190009200803120007B21A03122006708773C0B
:1041A000031DE0282300A7080319D8282200E028CF
:1041B00077302000B40001302300A600A7002200C1
:1041C000E708031DEF282000B40101302300A600FA
:1041D000A7012000AF01AE01AD01AC0122006708CC
:1041E000353C031DFB2835302000B400AF01AE0183
:1041F000AD01AC01220020003408773C031DA0294A
:104200002300260B5E29220068082000AF00220050
:1042100069082000AE0022006A082000AD002200DC
:104220006B082000AC0022006C082000B3002200C4
:104230006D082000B20022006E082000B1002200AC
:104240006F082000B00002302300B0000130B10040
:10425000803120009523A0310C302300A900FA30D2
:10426000D80080312000E521A0312300A90B2F299F
:1042700020002F082300B50020002E082300B400E2
:1042800020002D082300B30020002C082300B200DA
:10429000200033082300B900200032082300B800B2
:1042A000200031082300B700200030082300B600AA
:1042B000803120002D26A0312300A601803120006E
:1042C0008F26A03104302300A900FA30D8008031B5
:1042D0002000E521A0312300A90B652920002F082B
:1042E0002300B40020002E082300B30020002D0876
:1042F0002300B20020002C082300B100B801B70150
:10430000B601B501BC01BB01BA010530B9000130ED
:10431000BD00883120000020A03102302300A90018
:10432000FA30D80080312000E521A0312300A90B0C
:10433000902980312000E427A0318031FB21A03179
:104340003408353C031D772A220068082000AF009E
:10435000220069082000AE0022006A082000AD009B
:1043600022006B082000AC0022006C082000B8007E
:1043700022006D082000B70022006E082000B60061
:1043800022006F082000B50038082300E300200059
:1043900037082300E200200036082300E100200057
:1043A00035082300E000E701E601E50120003908B7
:1043B0002300E40080312000A526A0317A08B30054
:1043C0007908B2007808B1007708B0000230230005
:1043D000B0000130B100803120009523A0310C30B5
:1043E0002300A900FA30D80080312000E521A03157
:1043F0002300A90BF22920002F082300B50020007C
:104400002E082300B40020002D082300B300200054
:104410002C082300B200200033082300B90020003C
:1044200032082300B800200031082300B700200024
:1044300030082300B600803120002D26A0318031C5
:104440008F26A03104302300A900FA30D800803133
:104450002000E521A0312300A90B252A20002F08E8
:104460002300B40020002E082300B30020002D08F4
:104470002300B20020002C082300B100B801B701CE
:10448000B601B501200038082300BC002000370821
:104490002300BB00200036082300BA0020003508A6
:1044A0002300B9000130BD00883120000020A03178
:1044B00002302300A900FA30D80080312000E52125
:1044C000A0312300A90B5B2A80312000E427A03112
:1044D0008031FB21A031AF01AE01AD01AC01B801CB
:1044E000B701B601B501B301B201B101B001640079
:1044F0008031FB21A0311C3023009100013092005B
:10450000803120007B21A0312300A8012808273C0E
:10451000031CB92B88312000552AA03120302300FC
:1045200091000130920003101130D800803120003A
:10453000B422A0313A082300D9005730DA00803184
:1045400020007023A03120302300DE0080312000C5
:104550005521A0310D302300DE008031200055218F
:10456000A0310A302300DE00803120005521A03127
:104570007008AA3C0319C42A7008BB3C0319C42A5A
:104580007008593C031DDD2A3C08903C031DDD2AC0
:104590002C302300910001309200803120007B21DB
:1045A000A03188314F2CA0313130230091000130EF
:1045B0009200803120007B21A03136302300910011
:1045C0000130920003100430D80080312000B42262
:1045D000A031220046082300D9005730DA0080318C
:1045E00020007023A031220045082300D900573055
:1045F000DA00803120007023A0313930230091008F
:104600000130920003140530D80080312000B4221C
:10461000A031220048082300D9005730DA00803149
:1046200020007023A031220047082300D900573012
:10463000DA00803120007023A0310D302300DE002D
:10464000803120005521A0310A302300DE00803166
:1046500020005521A031220047084502031D9D2B53
:1046600048084602031D9D2B7008AA3C0319402BE5
:104670007008BB3C0319402B7008593C031D9D2B4F
:1046800020003C08AA3C031D482B8831F12CA031A6
:104690003F302300910001309200803120007B21C7
:1046A000A0318831182DA0318831E22DA031903110
:1046B0000028A03190314528A0319031942AA031B2
:1046C0009031E82AA03190315A2BA0319031462CFC
:1046D000A0319031072DA03190314C2DA031903177
:1046E000AF2DA0313D082300D9005730DA008031CA
:1046F00020007023A0310A302300DE00803120002A
:104700005521A0310D302300DE00803120005521DD
:10471000A0319031E42DA0319831B62AA0319031EA
:10472000852EA03148302300910001309200803165
:1047300020007B21A031A62B2200503023009100C5
:1047400001309200803120007B21A031A80180310E
:10475000E427A03108302300A900FA30D8008031C6
:104760002000E521A0312300A90BAD2B6400A80A8D
:08477000862A2000A82863003E
:020000040001F9
:04000E00DA3FFF1EB8
:00000001FF
;PIC16F1789
;CRC=FAC4  CREATED="28-9-21 16:29"
