:060000009831412A0000C6
:0800080083018031200077081C
:10001000A0007808A1007908A2007A08A3002300B4
:1000200011082000A400230012082000A5002300CE
:1000300013082000A600230014082000A700850153
:1000400091308400801E2628911A3F282008F7004E
:100050002108F8002208F9002308FA0024082300E8
:10006000910020002508230092002000260823008C
:10007000930020002708230094000900200080310D
:100080008F28733A61397410C131EB2FF0316B3A1C
:100090008A0600008A0665376410C131EB2FF03103
:1000A0006B3A0000F030E335653AA03965376410EB
:1000B000733A6139F4060A00C326C42FF0316B3A53
:1000C0003A100001D3224E225F22613AE12FD03054
:1000D000E335653A73103D100D050000733A613940
:1000E0007410C3264410F437A036E1346E10D024C7
:1000F00043050D00C3264410F437A036E1346E10DA
:10010000D024430065376410D3224E22DF29D52145
:10011000C322D329DF20C325A8140D0500002930F0
:1001200028078400203085000318850A911E962830
:1001300023001908800020002808A90001302807A2
:100140002500BD003D08BE001130BF003F08F8018A
:100150003E020318AE283E08F700BA28F70108301F
:10016000C000BE0DF70D3F0877020318F700F80D29
:10017000C00BB12877082000A800911280312628F2
:10018000C729A0346E3AE533F230F4346F37203AA1
:10019000E539F418A039F430723A20050D00C32B6C
:1001A000A027CE060A00C32BA02746230D05A026B4
:1001B000E1346E10F437A021CF26A0060A00522C9D
:1001C000A027CE060A00E23A66336539A0316F39BE
:1001D000E531F4346F37A01278100D050000EA3ACB
:1001E00073346937B1060A00EA3A73346937B206E4
:1001F0000A0063393D10253678162038EB1E253667
:10020000F8060A00733A6139F42F4324C521CB2F35
:10021000C32644050D006537E42F4324C521CB2FA9
:10022000C32644050D004529D22752104329430017
:1002300021008D1322008D130830F8001F290000C3
:10024000F8173229F8132300DB0C220003188D174E
:10025000031C8D13781732297813F80B23293029C2
:1002600000008D1704308400840B342937290000E6
:10027000F81B2229781B2C29200008000B088B135F
:1002800023009517151400000000891B8B17130815
:100290007F3903197A29D8001108D9001208DA0029
:1002A0005808DB00200018212300590891005A0843
:1002B00092000B088B139517151400000000891B82
:1002C0008B17130D140D7F3903197A29D8001108E3
:1002D000D9001208DA005808DB002000182123009A
:1002E000590891005A089200910A0319920A2000B5
:1002F0003E2923002000080021008F1222008F16C3
:1003000021000E1122000E1521008F1022008F10E7
:1003100021000F1122000F1121008F1122008F11D7
:1003200021001E169E161E139E131D141E109E10D5
:100330001E11203023008C000130900000308D0011
:100340008F00C0308B042100911698312000D52AEF
:10035000213085002830840000080319BD290530AC
:10036000F800F701F70BB229F80BB1292E30F7008E
:10037000F70BB829BB29800BAF29080022008F108A
:1003800064302300D8002000A82122000F1164301F
:100390002300D8002000A82122008F116430230000
:1003A000D8002000A82108001030F80021001D0806
:1003B000833978049D000F30F8001F08F039780465
:1003C0009F000D30F700F70BE3299D149D18E629D7
:1003D0001C08F9001B08F8001C08FA001C08F900AA
:1003E000200008008318F82921308500313084006E
:1003F000F701F801F901FA012300E101E201E3014B
:10040000E4015F085E045D045C040319372A2030B0
:10041000E5000310D80DD90DDA0DDB0DE10DE20D6D
:10042000E30DE40D5F086402031D202A5E086302E9
:10043000031D202A5D086202031D202A5C08610258
:10044000031C312A5C08E1025D08031C5D0FE20217
:100450005E08031C5E0FE3025F08031C5F0FE402EB
:100460000314F70DF80DF90DFA0DE50B092A6108D3
:1004700080006208813F6308823F6408833F200058
:1004800008002300AC01AB01AA01A901AD012D08B0
:10049000133C031C5B2A2000D42178082300A90701
:1004A0007908AA3D0030AB3DAC3D0D30F700F70BAD
:1004B000572AAD0A472A83102C08DB002B08DA00E4
:1004C0002A08D9002908D800DF01DE01DD01143037
:1004D000DC002000F22178082300AF007708AE008E
:1004E0002E08F8002F08F90098312000EB2A23008D
:1004F000B008031D9D2A20003E082200CD002000E8
:100500003F082200CE00200040082200CF0020003B
:1005100041082200D000200042082200D100200023
:1005200043082200D200200044082200D30020000B
:1005300045082200D400BC2A2300300BAB2A5030DF
:100540002200CD00CE01CF01D001D101D201D301D3
:10055000D401BC2A23003008023C031DBD2A5930B7
:100560002200CD00CE01230031082200CF00D001AF
:10057000D101D201D301D4012300B20132080F3CD2
:10058000031CF32AC9303207840020308500031889
:10059000850A0008B3003308B40021008D10220042
:1005A0008D100830F800D42A0000F817E72AF81355
:1005B0002300B40C220003188D14031C8D1078172F
:1005C000E72A7813F80BD82AE52A00008D14843026
:1005D0008400840BE92A0000F81BD72A781BE12A43
:1005E0002300B20ABE2A200008002300A408031D2D
:1005F000512B2308013C031C512B031D092B2208FE
:10060000863C031C512B031D092B21089F3C031C16
:10061000512B20000D19472BD93071078400203051
:1006200085000318850A05082300B3000408B200FA
:1006300021000D1520000D191B2B0830F700230099
:10064000B401F717332BF713332B031020000D19C8
:1006500003142300B40C7717332B7713F70B252BD8
:100660003408F8003F2B8430F71B2430F800F80BD7
:10067000372B3A2BF71B232B771B2D2B252B3308DE
:1006800085003208840078088000F10A20000130DB
:100690002300A1070318A20A0319A30A0319A40A35
:1006A000F62AF101A401A301A201A1012000080082
:1006B00023006C08083C0319612BEE00EB0DEE0BD8
:1006C0005E2B21000F178F130F1222000F12230031
:1006D0006C08EE00EB1B6F2B22008F132300EB1F27
:1006E000742B22008F172300EB0D22000F16F80D3C
:1006F00020000F1F78100F1B781422000F12230008
:10070000EE0B6A2B2000080022008F124230F70007
:10071000F70B882B000006302300EB000830EC00BC
:100720000130ED002000582322008F162000080021
:100730002300CA01CB01CC01F801F901FA014308F9
:10074000C400CB01CC01F801F901FA014208C5004F
:10075000CC01F801F901FA014108C600F801F901DC
:10076000FA014008C7002000842322008F120230C3
:10077000F700F70BB92B0000DC302300EB0008304A
:10078000EC000130ED002000582323004408EB006A
:100790000830EC000130ED0020005823230045080C
:1007A000EB000830EC000130ED002000582323005E
:1007B0004608EB000830EC000130ED002000582323
:1007C00023004708EB000830EC000130ED0020006A
:1007D00058230230F700F70BEB2B000022008F1696
:1007E0000C302300C800FA30D8002000A8212300D4
:1007F000C80BF32B200008002400110823006B080D
:1008000024009100140C031C022C1108F700200096
:1008100008002300ED01EE01EF01F801F901FA01F2
:100820006308E400EE01EF01F801F901FA01620842
:10083000E500EF01F801F901FA016108E600F801AD
:10084000F901FA016008E70022000E110230F700FA
:10085000F70B282C000013302300EB002000FC23B2
:1008600023006408EB002000FC2323006508EB0054
:100870002000FC2323006608EB002000FC2323005B
:100880006708EB002000FC2302302300EB0020006F
:10089000FC2377082300E80022000E1523006808D7
:1008A000F800200008002300D401D501D601F8018A
:1008B000F901FA014808CA00D501D601F801F90189
:1008C000FA014708CB00D601F801F901FA01460800
:1008D000CC00F801F901FA014508CD00200084237D
:1008E00022008F120230F700F70B742C0000123038
:1008F0002300EB000830EC000130ED00200058230D
:1009000023004A08EB000830EC000130ED00200025
:10091000582323004B08EB000830EC000130ED00B9
:100920002000582323004C08EB000830EC00013075
:10093000ED002000582323004D08EB000830EC00A8
:100940000130ED002000582323004908EB00083057
:10095000EC000130ED002000582322008F1620000B
:10096000080023003508C3003408C2003308C10062
:100970003208C000200098232300BD01BC01BB0148
:10098000BA013D083902031C112D031DD72C3C0868
:100990003802031C112D031DD72C3B083702031C02
:1009A000112D031DD72C36083A020318112D3A08D1
:1009B0003207C0003B08333DC1003C08343DC20053
:1009C0003D08353DC3003A083207C4003B08333DBB
:1009D000C5003C08343DC6003D08353DC700E30076
:1009E0004608E2004508E1004408E0002000092430
:1009F00078082300C4004308C8004208C700410823
:100A0000C6004008C5004408C90020005324013036
:100A10002300BA070318BB0A0319BC0A0319BD0A4D
:100A2000C12C2000080022008F1464302300D8005D
:100A30002000A82122000F1164302300D8002000DC
:100A4000A82122008F1164302300D8002000A821A3
:100A5000080020302300EF00EB01EC01ED01EE0176
:100A60006308FA006208F9006108F8006008F700FE
:100A70000310771C492D6408EB0765080318650F00
:100A8000EC0766080318660FED0767080318670F81
:100A9000EE07EE0CED0CEC0CEB0CFA0CF90CF80C70
:100AA000F70CEF0B382D200008002300ED01EE01BC
:100AB000EF01F801F901FA016308E400EE01EF012A
:100AC000F801F901FA016208E500EF01F801F90106
:100AD000FA016108E600F801F901FA016008E7008F
:100AE00022008F120230F700F70B742D0000133034
:100AF0002300EB000830EC000130ED00200058230B
:100B000023006408EB000830EC000130ED00200009
:100B1000582323006508EB000830EC000130ED009D
:100B20002000582323006608EB000830EC00013059
:100B3000ED002000582323006708EB000830EC008C
:100B40000130ED002000582301302300EB00083075
:100B5000EC000130ED002000582378082300E80065
:100B600022008F1623006808F800200008002300E8
:100B7000DE01DD01FF30DC00DB00E201E101843059
:100B8000E0000830DF00EB01EA01E901E801EB08D1
:100B9000031D592EEA08031D592EE908031D592E7D
:100BA0005A0868020318592E3C306807F8002130B3
:100BB000693DFA0078082500B4007A08B5002300E2
:100BC0005808680784005908693D85000008250019
:100BD000B6003508850034088400360880002300FC
:100BE000E701E601E501E401E708031D502EE608F0
:100BF000031D502EE508031D502E6408073C031CFE
:100C0000502E3C30680784002130693D8500000883
:100C10005B062500B40023005C082500B500230016
:100C20005D082500B60023005E082500B7003408E3
:100C300001392300E3000310DE0CDD0CDC0CDB0CBF
:100C4000630B2A2E5F08DB066008DC066108DD0600
:100C50006208DE063C306807F8002130693DFA0082
:100C600078082500B4007A08B5003C3023006807F6
:100C700084002130693D85000310000C2500B6007A
:100C800035088500340884003608800001302300D0
:100C9000E4070318E50A0319E60A0319E70AF42D25
:100CA0000130E8070318E90A0319EA0A0319EB0AF5
:100CB000C72DFF30DB06DC065B08F8005C08F90096
:100CC00020000800111E622E23009A002000080058
:100CD0002300DA1B7D2E0F30F700590EF7050A307E
:100CE00077020318762E3030F707782E5A08F70768
:100CF0007708DB002000182123000F30D9050A30C7
:100D000059020318852E3030872EDA135A08D90776
:100D10005908DB002000182108002300B101310828
:100D20000D3C031C9D2E1A303107840020308500B5
:100D30000318850A8001B10A8F2E2000C80108001F
:100D40002300B1013108103C031CB02E29303107BB
:100D50008400203085000318850A8001B10AA22E84
:100D6000200008004908423C031DDB2E2300A90196
:100D700029080D3C031CD82E1A302907F800203012
:100D8000FA000318FA0A7808B1007A08B20029308C
:100D900029078400203085000318850A0008B30065
:100DA000320885003108840033088000A90AB82E73
:100DB0002000A801A0264A08423C031D052F23005D
:100DC000AA012A080D3C031C022F1A302A07F8003A
:100DD0002030FA000318FA0A7808B1007A08B20045
:100DE00001302A07293E8400203085000318850A37
:100DF0000008B30032088500310884003308800001
:100E0000AA0AE12E2000A801A0264B08423C031D9F
:100E10002F2F2300AB012B080D3C031C2C2F1A3065
:100E20002B07F8002030FA000318FA0A7808B100FE
:100E30007A08B20002302B07293E8400203085005A
:100E40000318850A0008B3003208850031088400C1
:100E500033088000AB0A0B2F2000A801A0264C0805
:100E6000423C031D592F2300AC012C080D3C031CF0
:100E7000562F1A302C07F8002030FA000318FA0A0F
:100E80007808B1007A08B20003302C07293E8400AC
:100E9000203085000318850A0008B3003208850059
:100EA0003108840033088000AC0A352F2000A801E7
:100EB000A0264D08423C031D832F2300AD012D08C1
:100EC0000D3C031C802F1A302D07F8002030FA004B
:100ED0000318FA0A7808B1007A08B20004302D0726
:100EE000293E8400203085000318850A0008B300DD
:100EF000320885003108840033088000AD0A5F2F76
:100F00002000A801A02620302300D9001A30D800E4
:100F10000C30DA002000B72579082200C6007808D6
:100F2000C5005C30230091000030920020003E217B
:100F30002300AE012E080D3C031CB42F1A302E07DF
:100F40008400203085000318850A0008B100D9000C
:100F50005730DA002000682620302300DB00200014
:100F600018212300AE0A9A2F0D30DB002000182133
:100F70000A302300DB002000182147082200C800A7
:100F8000200046082200C70020003B08F0009831EE
:100F9000CE2C8831472280318230230091000030EE
:100FA000920020003E212300A9012908593C031C7E
:100FB000E12F0230D8002000A82164002300A90AF4
:100FC000D52F20008D269831102D22008F15B4309A
:100FD0002300D8002000A82122008F113C302300DC
:100FE000D8002000A821080022008F11B43023006F
:080FF000D8002000A821080030
:101000002300B908031D3528BA08031D3528BB087D
:10101000031D3528BC08031D352883103808DB0064
:101020003708DA003608D9003508D800DF01DE01BC
:10103000DD015130DC0080312000F22188317A0856
:101040002300DB007908DA007808D9007708D80097
:1010500001305807BE000030593DBF0000305A3DF6
:10106000C00000305B3DC1004928B508031D492878
:10107000B608031D4928B708031D4928B808031DF1
:1010800049283C08C1003B08C0003A08BF003908A5
:10109000BE00C501C401C3010130C20045084102C0
:1010A000031CFF29031D642844084002031CFF2978
:1010B000031D642843083F02031CFF29031D642805
:1010C00042083E02031CFF294A302100AC00473091
:1010D000AD003630AE005930AF004230B00057306E
:1010E000B1003030B2004A30B3004730B40036307F
:1010F000B5005930B6004D30B7005830B800303028
:10110000B9003E30BA00F030BB00FF30BC00F03018
:10111000BD00FF30BE00230044082100BF002300B3
:1011200043082100C000230042082100C100230021
:101130003D0B1529C901C801C7011630C600C908F1
:10114000031D1529C808031D1529C708031D1529E6
:101150004608663C031C15295C304607D800203041
:10116000473DD90001304202F7000030433BF80010
:101170000030443BF9000030453BFA00DD007908BF
:10118000DC007808DB007708DA000508DF000408D7
:10119000DE00E301E201E1015130E0005D08E7001B
:1011A0005C08E6005B08E5005A08E4008031200096
:1011B0002925883123005F0885005E0884007708B0
:1011C0003107DA007808323DDB007908333DDC0076
:1011D0007A08343DDD004608DA074708DB3D480859
:1011E000DC3D4908DD3D1630DA020030DB3BDC3BFC
:1011F000DD3B5D08E3005C08E2005B08E1005A08A3
:10120000E0008031200055258831230059088500F1
:1012100058088400780880000130C6070318C70A00
:101220000319C80A0319C90A9F28BD08031D932979
:10123000CD01CC01CB011630CA00CD08031D932986
:10124000CC08031D9329CB08031D93294A08663C4B
:10125000031C93295C304A07D80020304B3DD9004D
:1012600001304202F7000030433BF8000030443BBD
:10127000F9000030453BFA00DD007908DC00780811
:10128000DB007708DA000508DF000408DE00E30170
:10129000E201E1015130E0005D08E7005C08E60092
:1012A0005B08E5005A08E4008031200029258831D8
:1012B00023005F0885005E08840077083107DA00A4
:1012C0007808323DDB007908333DDC007A08343D94
:1012D000DD004A08DA074B08DB3D4C08DC3D4D08D1
:1012E000DD3D1630DA020030DB3BDC3BDD3B5D08E8
:1012F000E3005C08E2005B08E1005A08E00080318E
:1013000020000924883123005908850058088400EA
:10131000780880000130CA070318CB0A0319CC0AE9
:101320000319CD0A1D292030D9005C30D800673060
:10133000DA0080312000B725883179082300CF00FA
:101340007808CE004E082200C30023004F08220078
:10135000C400523023009100003092008031200000
:101360003E2188312300D0015008683C031CE1294C
:101370005C3050078400203085000318850A00087F
:10138000D800580880312000622688315C30230064
:1013900050078400203085000318850A0008D80013
:1013A000D9005730DA00803120006826883120309B
:1013B0002300DB0080312000182188312300D00A6F
:1013C000B4290D30DB0080312000182188310A302B
:1013D0002300DB008031200018218831DC3023001D
:1013E000D80080312000A821883101302300C207B5
:1013F0000318C30A0319C40A0319C50A4E2820009A
:1014000008000B088B13230095171514000000002B
:10141000891B8B170318292A13087F39AB00110881
:10142000AC001208AD002B08DB0080312000182131
:10143000883123002C0891002D0892000B088B1393
:101440009517151400000000891B8B17A90B292A7A
:10145000452A130D140D7F39AB001108AC0012089A
:10146000AD002B08DB0080312000182188312300DB
:101470002C0891002D089200910A0319920A03107A
:10148000A90B432A452A2000012A200008004A30DF
:10149000DA004730DB003630DC005930DD00423006
:1014A000DE005730DF003030E0004A30E1004730E6
:1014B000E2003630E3005930E4004D30E5005830AA
:1014C000E6003030E7003E30E800F030E900AA30B6
:1014D000EA000330EB003B08EC003C08ED003D085F
:1014E000EE003E08EF003F082100A0002000400869
:1014F0002100A100200041082100A2002000420894
:101500002100A300200043082100A400200044087B
:101510002100A500200045082100A600AA30A70050
:1015200020302300D9003A30D8001E30DA00803154
:101530002000B725883179082300B2007808B1006F
:1015400031082100A800230032082100A9008F10D3
:1015500022008F1408302300B400FA30D800803104
:101560002000A82188312300B40BAD2A413091001E
:1015700000309200803120003E2188312300B301E9
:1015800033081F3C031CED2A3A3033078400203017
:1015900085000318850A0008B40034088031200053
:1015A000622688313A3023003307840020308500DA
:1015B0000318850A0008B400D9005730DA008031DA
:1015C00020006826883120302300DB008031200095
:1015D000182188312300B30AC02A4A309100003014
:1015E0009200803120003E21883102302300B40077
:1015F000FA30D80080312000A82188312300B40BB4
:10160000F82A21008F1022008F10200008004A3095
:10161000DA004730DB003630DC005930DD00423084
:10162000DE005730DF003030E0004A30E100473064
:10163000E2003630E3005930E4004D30E500583028
:10164000E6003030E7003E30E800F030E900AA3034
:10165000EA000330EB003B08EC003C08ED00693089
:10166000EE00EF002100A000A100A200A300A40052
:10167000A500A600AA30A70020302300D9003A30E8
:10168000D8001E30DA0080312000B7258831790873
:101690002300B1007808B00030082100A800230022
:1016A00031082100A9008F1022008F140830230078
:1016B000B300FA30D80080312000A82188312300FF
:1016C000B30B592BB20132081F3C031C782B3A3064
:1016D00032078400203085000318850A0008B30013
:1016E000330880312000622688312300B20A632B40
:1016F0000230B300FA30D80080312000A8218831B0
:101700002300B30B7A2B21008F1022008F102000B2
:10171000080045082300A9002908783C031CA72BD2
:10172000200047222300AA0129082A020318A62B19
:101730001430AB00FA30D80080312000A821883165
:101740002300AB0B9A2B6400AA0A942BAA2B20002F
:1017500007232300803120008D2688319831842D85
:101760003D08103C0319B82B3D08113C031D372CD4
:101770003E082300AC0020003F082300AB002000FF
:1017800040082300AA00200041082300A9002000EF
:1017900042082300B000200043082300AF002000CF
:1017A00044082300AE00200045082300AD0080312E
:1017B00020001325883104302300B100FA30D8000E
:1017C00080312000A82188312300B10BDE2B2000BE
:1017D0003D08103C031D082C23002C08B4002B08E6
:1017E000B3002A08B2002908B100B801B701B60158
:1017F000B5013008BC002F08BB002E08BA002D0828
:10180000B9000130BD002000002080318D268831D4
:101810003D08113C031D272C23002C08B4002B0885
:10182000B3002A08B2002908B100B801B701B60117
:10183000B5013008BC002F08BB002E08BA002D08E7
:10184000B900BD012000002080318D268831023092
:101850002300B100FA30D80080312000A82188315F
:101860002300B10B2A2C80312000BE218831983111
:10187000902D3D08133C0319412C3D08143C031DD9
:10188000C92C3E082300AC0020003F082300AB0019
:10189000200040082300AA00200041082300A900DE
:1018A000200042082300B000200043082300AF00BE
:1018B000200044082300AE00200045082300AD00AE
:1018C000803120001325883104302300B100FA3024
:1018D000D80080312000A82188312300B10B672C6B
:1018E00020003D08133C031D9A2C23002C08B40053
:1018F0002B08B3002A08B2002908B1003008B8004C
:101900002F08B7002E08B6002D08B500BC01BB019A
:10191000BA01B9010130BD0020000020623023006F
:10192000910000309200803120003E2188318031CA
:101930008D2688313D08143C031DB92C23002C084A
:10194000B4002B08B3002A08B2002908B1003008FF
:10195000B8002F08B7002E08B6002D08B500BC014E
:10196000BB01BA01B901BD012000002080318D26E4
:10197000883102302300B100FA30D80080312000D5
:10198000A82188312300B10BBC2C80312000BE215E
:1019900088319831932D3E082300AD0020003F0888
:1019A0002300AC00200040082300AB0020004108C9
:1019B0002300AA00200042082300B10020004308B1
:1019C0002300B000200044082300AF002000450899
:1019D0002300AE004A302100AC004730AD00363065
:1019E000AE005930AF004230B0005730B100303057
:1019F000B2004A30B3004730B4003630B500593039
:101A0000B6004D30B7005830B8003030B9003E3025
:101A1000BA00F030BB00FF30BC00F030BD00FF303A
:101A2000BE00230030082100BF0023002F08210042
:101A3000C00023002E082100C1002300290B9F2D88
:101A4000B501B401B3011630B200B508031D9F2DD6
:101A5000B408031D9F2DB308031D9F2D3208663C5B
:101A6000031C9F2D5C303207F8002030333DFA0014
:101A70007808C0007A08C10001302E02F70000305B
:101A80002F3BF8000030303BF9000030313BFA00CA
:101A9000C5007908C4007808C3007708C2000508AB
:101AA000C7000408C600E301E201E1015130E00093
:101AB0004508E7004408E6004308E5004208E40062
:101AC00080312000292588312300470885004608F9
:101AD000840077082A07C20078082B3DC3007908E4
:101AE0002C3DC4007A082D3DC5003208C2073308DA
:101AF000C33D3408C43D3508C53D1630C202003030
:101B0000C33BC43BC53B4508E3004408E20043082F
:101B1000E1004208E0008031200055258831230093
:101B20004108850040088400780880000130B20731
:101B30000318B30A0319B40A0319B50A252DA90815
:101B4000031D212EB901B801B7011630B600B9083E
:101B5000031D212EB808031D212EB708031D212EB9
:101B60003608663C031C212E5C303607F800203016
:101B7000373DFA007808C0007A08C10001302E0213
:101B8000F70000302F3BF8000030303BF900003008
:101B9000313BFA00C5007908C4007808C300770813
:101BA000C2000508C7000408C600E301E201E10124
:101BB0005130E0004508E7004408E6004308E5002E
:101BC0004208E4008031200029258831230047089D
:101BD00085004608840077082A07C20078082B3D54
:101BE000C30079082C3DC4007A082D3DC500360895
:101BF000C2073708C33D3808C43D3908C53D163013
:101C0000C2020030C33BC43BC53B4508E300440867
:101C1000E2004308E1004208E0008031200009248E
:101C2000883123004108850040088400780880003E
:101C30000130B6070318B70A0319B80A0319B90A1D
:101C4000A72D2030D9005C30D8006730DA00803111
:101C50002000B725883179082300BB007808BA0036
:101C60003A082200C30023003B082200C4002300DE
:101C7000BC013C08683C031C4E2E5C303C078400D1
:101C8000203085000318850A0008C0004008803114
:101C90002000622688312300BC0A392EC830D800C3
:101CA00080312000A821883108003D08153C031927
:101CB0005D2E3D08163C031D942E8031132588317E
:101CC00004302300A900FA30D80080312000A82178
:101CD00088312300A90B632E20003D08153C031D0D
:101CE000792E01302300A9002000CB2480318D26DD
:101CF00088313D08163C031D842E2300A9012000D5
:101D0000CB2480318D26883102302300A900FA309F
:101D1000D80080312000A82188312300A90B872E0C
:101D200080312000BE2188319831962D3D08353C08
:101D3000031D092F3E082300AC0020003F082300AC
:101D4000AB00200040082300AA0020004108230027
:101D5000A900200044082300AE002000450823000D
:101D6000AD000230B000200042082300B1008031F5
:101D70002000772288318031F52288310830230015
:101D8000AF00FA30D80080312000A821883123002C
:101D9000AF0BC12E22006508663C031D052F803164
:101DA00020001325883104302300AF00FA30D8001A
:101DB00080312000A82188312300AF0BD62E2C08BB
:101DC000B4002B08B3002A08B2002908B100B801FA
:101DD000B701B601B501BC01BB012E08BA002D0840
:101DE000B900BD012000002002302300AF00FA300E
:101DF000D80080312000A82188312300AF0BF72EB6
:101E000080312000BE2188312200803120008D26C3
:101E100088319831992D3D08443C031D5F2F3E08C1
:101E20002300AC0020003F082300AB002000400846
:101E30002300AA00200041082300A9000230B000BE
:101E4000200042082300B100803120007722883131
:101E500080311325883104302300AD00FA30D800DA
:101E600080312000A82188312300AD0B2E2F2C08B3
:101E7000B0002B08AF002A08AE002908AD002000F2
:101E800045082300B100200044082300B200B3013C
:101E9000903120000020883180318D268831023039
:101EA0002300AD00FA30D80080312000A82188310D
:101EB0002300AD0B522F80312000BE218831983194
:101EC0009C2D3D08403C0319692F3D08413C031DF2
:101ED000D52F3E082300AC0020003F082300AB00B4
:101EE000200040082300AA00200041082300A90088
:101EF000803120001325883104302300AD00FA30F2
:101F0000D80080312000A82188312300AD0B7F2F1D
:101F100020003D08403C031DA82F23002C08B000E2
:101F20002B08AF002A08AE002908AD0020004508A4
:101F30002300B100200044082300B2000130B300A8
:101F4000903120000020883180318D268831C52FC6
:101F50003D08413C031DC52F23002C08B0002B0871
:101F6000AF002A08AE002908AD0020004508230074
:101F7000B100200044082300B200B30190312000DA
:101F80000020883180318D26883102302300AD0059
:101F9000FA30D80080312000A82188312300AD0B11
:101FA000C82F80312000BE21883198319F2D22001A
:101FB0008F153C302300D80080312000A8218831C3
:101FC00022008F113C302300D80080312000A8214E
:101FD000883108008031E5278831D727D727D727D0
:101FE0008031F42788310800D727D7278031F4279C
:041FF000883108002C
:10200000013023003202D0003108D1005008D20044
:10201000F701F801510803105218F707F70CF80CF4
:10202000D218F707F70CF80C5219F707F70CF80C51
:10203000D219F707F70CF80C521AF707F70CF80C3F
:10204000D21AF707F70CF80C521BF707F70CF80C2D
:10205000D21BF707F70CF80CB701B601B5017808E9
:10206000B400E301E201E1015130E0003708E7008C
:102070003608E6003508E5003408E4008031200029
:1020800029259031770823002D07B80078082E3DC8
:10209000B90079082F3DBA007A08303DBB00BF0176
:1020A000BE01BD010130BC00BF08031DCE29BE0822
:1020B000031DCE29BD08031DCE293C083102031C97
:1020C000CE294A302100AC004730AD003630AE009A
:1020D0005930AF004230B0005730B1003030B2005C
:1020E0004A30B3004730B4003630B5005930B6003E
:1020F0004D30B7005830B8003030B9003E30BA002B
:10210000F030BB00FF30BC00F030BD00FF30BE003F
:1021100023003E082100BF0023003D082100C0002D
:1021200023003C082100C1002300330B1329C30105
:10213000C201C1011630C000C308031D1229C20824
:10214000031D1229C108031D12294008663C031C07
:1021500012295C304007D0002030413DD1000130D1
:102160003C02F70000303D3BF80000303E3BF900F8
:1021700000303F3BFA00D5007908D4007808D3003E
:102180007708D2000508D7000408D600E301E20171
:10219000E1015130E0005508E7005408E60053081B
:1021A000E5005208E4008031200029259031230009
:1021B000570885005608840077083807D200780849
:1021C000393DD30079083A3DD4007A083B3DD5002B
:1021D0004008D2074108D33D4208D43D4308D53DCD
:1021E0001630D2020030D33BD43BD53B5508E30038
:1021F0005408E2005308E1005208E000803120005A
:102200005525903123005108850050088400780836
:1022100080000130C0070318C10A0319C20A03195C
:10222000C30A9C289129B308031D9129C701C6013F
:10223000C5011630C400C708031D9129C608031D37
:102240009129C508031D91294408663C031C912966
:102250005C304407D0002030453DD10001303C02C5
:10226000F70000303D3BF80000303E3BF900003005
:102270003F3BFA00D5007908D4007808D3007708EE
:10228000D2000508D7000408D600E301E201E1010D
:102290005130E0005508E7005408E6005308E50017
:1022A0005208E4008031200029259031230057088E
:1022B00085005608840077083807D2007808393D31
:1022C000D30079083A3DD4007A083B3DD500440854
:1022D000D2074508D33D4608D43D4708D53D1630C2
:1022E000D2020030D33BD43BD53B5508E300540821
:1022F000E2005308E1005208E00080312000092488
:10230000903123005108850050088400780880002F
:102310000130C4070318C50A0319C60A0319C70AFE
:102320001B292030D9005C30D8006730DA008031BA
:102330002000B725903179082300C9007808C8002B
:1023400048082200C300230049082200C4002300DB
:10235000CA014A08683C031CBE295C304A07840055
:10236000203085000318850A0008D000500880310D
:102370002000622690312300CA0AA929C830D8005B
:1023800080312000A821903101302300BC070318C0
:10239000BD0A0319BE0A0319BF0A54282000080009
:1023A0003D08303C031DBA2A4A30DA004730DB00D2
:1023B0003630DC005930DD004230DE005730DF00BF
:1023C0003030E0004A30E1004730E2003630E300D0
:1023D0005930E4004D30E5005830E6003030E70079
:1023E0003E30E800F030E900AA30EA000330EB00AC
:1023F0003B08EC003C08ED001430F80021001D08FB
:10240000833978049D000F30F8001F08F0397804F4
:102410009F000D30F700F70B0B2A9D149D180E2A14
:102420001C08F9001B08F8001C08FA001C08F90039
:1024300079082300AA007808A900AE01AD01AC011B
:10244000AB01AF012F08633C031C382A8031200008
:10245000D421903178082300AB077908AC3D0030D7
:10246000AD3DAE3D8530F700F70B342AAF0A222A86
:1024700083102E08DB002D08DA002C08D9002B0869
:10248000D800DF01DE01DD016430DC008031200096
:10249000F221903178082300B1007708B0002000C5
:1024A0003D08EE00DD30EF00230031082100A000E0
:1024B000230030082100A100DD30A200A30023008A
:1024C0002A082100A400230029082100A500DD30EE
:1024D000A600AA30A70020302300D9003A30D80047
:1024E0001E30DA0080312000B725903179082300B2
:1024F000B3007808B20032082100A8002300330896
:102500002100A9008F1022008F1408302300B5008D
:10251000FA30D80080312000A82190312300B50B7B
:10252000882AB40134081F3C031CA72A3A30340718
:102530008400203085000318850A0008B50035089E
:1025400080312000622690312300B40A922A0230A2
:10255000B500FA30D80080312000A8219031230046
:10256000B50BA92A21008F1022008F108031200086
:102570008D2690319831A22D3D08273C031D7B2BE1
:102580003E082300AC0020003F082300AB002000E1
:1025900040082300AA00200041082300A9002000D1
:1025A00044082300AE00200045082300AD0002309F
:1025B000B000200042082300B100803120007722C3
:1025C00090318031F522903122006508663C031D70
:1025D000542B23002E08B1002D08B000B301513058
:1025E000B2001030B400F701FA01B10CB00C031CBA
:1025F000FF2A3208F7070318FA0A3308FA07FA0C19
:10260000F70CF90CF80CB40BF52A7908B10078082E
:10261000B0002C08B5002B08B4002A08B300290824
:10262000B200B901B8013108B7003008B6008031F6
:102630002000B124903180311325903104302300E3
:10264000B000FA30D80080312000A821903123005A
:10265000B00B212B2C08B4002B08B3002A08B200C1
:102660002908B100B801B701B601B501BC01BB0131
:102670002E08BA002D08B9000130BD0088312000B5
:102680000020903102302300B000FA30D8008031B1
:102690002000A82190312300B00B452B8031200071
:1026A000BE219031782B22008031200013259031FB
:1026B00004302300B000FA30D80080312000A82177
:1026C00090312300B00B5B2B883120000723903121
:1026D00002302300B000FA30D80080312000A82159
:1026E00090312300B00B6B2B80312000BE21903144
:1026F00080318D2690319831A52D3D08173C031D62
:10270000C02B8831472290313E082300AC002000C6
:102710003F082300AB00200040082300AA0020004F
:1027200041082300A900200042082300B000200037
:1027300043082300AF00200044082300AE0020001F
:1027400045082300AD002C08B5002B08B4002A086A
:10275000B3002908B2003008B9002F08B8002E08CD
:10276000B7002D08B60080312000B12490318831A7
:102770004722903180318D2690318031BE219031B9
:102780009831A82D3D08223C031D232C3E08230030
:10279000AC0020003F082300AB00200040082300CD
:1027A000AA00200041082300A900200044082300BB
:1027B000AE00200045082300AD000230B00020002C
:1027C00042082300B100803120007722903180310F
:1027D000F522903122006508663C031D192C8831D2
:1027E00020004722903104302300B000FA30D80096
:1027F00080312000A82190312300B00BF62B2D084A
:10280000B100B0012C08B5002B08B4002A08B300B1
:102810002908B200B901B8012D08B7003008B60088
:1028200080312000B12490318831472290311D2C15
:102830002200883120000723903180318D2690318D
:102840008031BE2190319831AB2D3D08423C031DB3
:10285000582C450B2C2C342C4508053C0319342CE2
:1028600045080A3C031D582C02302300B00020000C
:1028700045082300B100803120007722903180315B
:10288000F522903122006508663C031D4C2C8831EE
:102890002000472290312200E508031D542C883186
:1028A0002000072390312200803120008D269031B6
:1028B0009831AE2D6E3023009100003092008031AF
:1028C00020003E2190313D082300D9005730DA0026
:1028D00080312000682690310A302300DB008031EF
:1028E0002000182190310D302300DB0080312000C2
:1028F000182190313D08A03C031DA72C7A302300FD
:10290000910000309200803120003E219031230060
:10291000B001B10180312000772290318031F52261
:10292000903122006508663C031D9B2C88312000F5
:10293000472290312200E508031DA32C8831200096
:10294000072390312200803120008D26903198316C
:10295000C82D8831D72790318031E52790318831D3
:10296000D72790318031F427903108008031E52756
:1029700090318831D72790318831D72790318031F5
:10298000F427903108008831D72790318831D72734
:1029900090318831D72790318031F4279031080069
:1029A0008831D72790318831D72790318831D72780
:1029B00090318831D72790318031E52790318031AF
:1029C000F427903108008831D72790318031E527EE
:1029D00090318031E52790318031E5279031803189
:1029E000F427903108008031E52790318031E527C8
:1029F00090318831D72790318031F4279031080009
:102A00008031E52790318831D72790318831D72719
:102A100090318831D72790318831D7279031803154
:102A2000F427903108008031E52790318831D7278D
:102A300090318031E52790318031E5279031803128
:102A4000F427903108008031E52790318031E52767
:102A500090318031F427903108008031E5279031A2
:102A60008831D72790318831D72790318031E527B9
:102A700090318031F427903108002300AC0803190D
:102A8000452D2C08303C031D5A2D80312000E527B0
:102A900090318031E52790318031E52790318031C8
:102AA000E52790318031E52790318031F42790314E
:102AB000DC2F23002C0B5D2D612D2C08313C031DD8
:102AC000762D88312000D72790318031E52790314D
:102AD0008031E52790318031E52790318031E5273D
:102AE00090318031F4279031DC2F23002C08023CF8
:102AF00003197E2D2C08323C031D932D88312000B4
:102B0000D72790318831D72790318031E527903110
:102B10008031E52790318031E52790318031F427ED
:102B20009031DC2F23002C08033C03199B2D2C082B
:102B3000333C031DB02D88312000D72790318831D8
:102B4000D72790318831D72790318031E5279031D0
:102B50008031E52790318031F4279031DC2F23003C
:102B60002C08043C0319B82D2C08343C031DBC2D43
:102B70002000D024DC2F23002C08053C0319C42D91
:102B80002C08353C031DD92D88312000D7279031E2
:102B90008831D72790318831D72790318831D7278E
:102BA00090318831D72790318031F4279031DC2F54
:102BB00023002C08063C0319E12D2C08363C031D8C
:102BC000E52D20000025DC2F23002C08073C0319ED
:102BD000ED2D2C08373C031D022E80312000E52707
:102BE00090318031E52790318831D7279031883175
:102BF000D72790318831D72790318031F427903111
:102C0000DC2F23002C08083C03190A2E2C08383C22
:102C1000031D1F2E80312000E52790318031E527EC
:102C200090318031E52790318831D7279031883134
:102C3000D72790318031F4279031DC2F23002C08E6
:102C4000093C0319272E2C08393C031D3C2E8031EA
:102C50002000E52790318031E52790318031E5274C
:102C600090318031E52790318831D72790318031FC
:102C7000F4279031DC2F23002C080A3C0319442E42
:102C80002C08613C031D502E88312000D72790313D
:102C90008031E52790318031F4279031DC2F2300FB
:102CA0002C080B3C0319582E2C08623C031D5E2E89
:102CB00088312000EA279031DC2F23002C080C3CBF
:102CC0000319662E2C08633C031D782E80312000EA
:102CD000E52790318831D72790318031E527903131
:102CE0008831D72790318031F4279031DC2F2300B1
:102CF0002C080D3C0319802E2C08643C031D842EE7
:102D00002000B624DC2F23002C080E3C03198C2E47
:102D10002C08653C031D952E88312000D727903163
:102D20008031F4279031DC2F23002C080F3C03194D
:102D30009D2E2C08663C031DAF2E88312000D7271E
:102D400090318831D72790318031E5279031883113
:102D5000D72790318031F4279031DC2F23002C08C5
:102D6000673C031DB72E2000F324DC2F23002C0822
:102D7000683C031DCD2E88312000D7279031883143
:102D8000D72790318831D72790318831D727903194
:102D90008031F4279031DC2F23002C08693C031D7F
:102DA000D72E88312000F4279031DC2F23002C0807
:102DB0006A3C031DDF2E2000E324DC2F23002C08B7
:102DC0006B3C031DF22E80312000E52790318831C5
:102DD000D72790318031E52790318031F427903129
:102DE000DC2F23002C086C3C031D082F88312000A9
:102DF000D72790318031E52790318831D72790311E
:102E00008831D72790318031F4279031DC2F23008F
:102E10002C086D3C031D102F20002325DC2F2300E0
:102E20002C086E3C031D202F80312000E5279031B7
:102E30008831D72790318031F4279031DC2F23005F
:102E40002C086F3C031D332F80312000E527903183
:102E50008031E52790318031E52790318031F427AA
:102E60009031DC2F23002C08703C031D492F883142
:102E70002000D72790318031E52790318031E52738
:102E800090318831D72790318031F4279031DC2F71
:102E900023002C08713C031D5F2F80312000E527A3
:102EA00090318031E52790318831D72790318031BA
:102EB000E52790318031F4279031DC2F23002C0856
:102EC000723C031D672F2000A924DC2F23002C084F
:102ED000733C031D6F2F2000C324DC2F23002C081C
:102EE000743C031D7C2F80312000E5279031803118
:102EF000F4279031DC2F23002C08753C031D8F2F05
:102F000088312000D72790318831D7279031803100
:102F1000E52790318031F4279031DC2F23002C08F5
:102F2000763C031DA52F88312000D72790318831AA
:102F3000D72790318831D72790318031E5279031DC
:102F40008031F4279031DC2F23002C08773C031DBF
:102F5000B82F88312000D72790318031E527903174
:102F60008031E52790318031F4279031DC2F230028
:102F70002C08783C031DC02F20002D25DC2F2300BA
:102F80002C08793C031DC82F20001325DC2F2300BB
:102F90002C087A3C031DDD2F80312000E52790317D
:102FA0008031E52790318831D72790318831D72774
:0E2FB00090318031F42790312300200008007A
:103000003D08213C031DC92922008F106430230094
:10301000D80080312000A821983122000F1564309B
:103020002300D80080312000A821983122008F1180
:1030300064302300D80080312000A821983102306C
:103040002300A900FA30D80080312000A82198314F
:103050002300A90B222888312000EA2798318831E3
:10306000F42798319031A92498319031B6249831C1
:103070009031C32498319031D0249831023023000C
:10308000A900FA30D80080312000A821983123000F
:10309000A90B412890312000E32498319031F3248A
:1030A0009831903100259831903113259831903125
:1030B0002325983190312D25983102302300A90025
:1030C000FA30D80080312000A82198312300A90BC4
:1030D0006028E301E201E101E00180312000552593
:1030E0009831780FBF2873302300AC009031200056
:1030F0003D25983169302300AC00903120003D25FA
:1031000098312B0E2300AA00AB010F30AA05AA05A7
:10311000AB012A08AC00903120003D2598312B08E6
:103120002300AA00AB010F30AA05AB012A08AC00AE
:10313000903120003D2598312B0C2300AB0020005E
:103140002A0C2300AA00AB0CAA0CAB0CAA0CAB0CEB
:10315000AA0C0F30AB05AA05AB012A08AC009031D0
:1031600020003D2598312A080F392300AA00AB0121
:103170002A08AC00903120003D2598312B292300EE
:10318000E301E201E1010130E0008031200055253A
:10319000983178082300AA00AC00903120003D252A
:1031A00098312300E301E201E1010230E0008031C7
:1031B00020005525983178082300AA00AC009031F2
:1031C00020003D2598312300E301E201E1010330B5
:1031D000E000803120005525983178082300AA00AE
:1031E000AC00903120003D2598312300E301E2013D
:1031F000E1010430E0008031200055259831780845
:103200002300AA00AC00903120003D259831230016
:10321000E301E201E1010530E000803120005525A5
:10322000983178082300AA00AC00903120003D2599
:1032300098312300E301E201E1010630E000803132
:1032400020005525983178082300AA00AC00903161
:1032500020003D25983102302300A900FA30D80023
:1032600080312000A82198312300A90B2E292200AB
:103270005A08503C031D70295B08F039F700770E9F
:10328000F2000F30F2055B080F39F3005C08F039EB
:10329000F700770EF4000F30F4055C080F39F500E5
:1032A0005D08F039F700770EF6000F30F6055D087F
:1032B0000F39FB005E08F039F700770EFC000F3085
:1032C000FC055E080F39FD005F08F039F700770E46
:1032D000FE000F30FE055F080F392300A500220015
:1032E00072082300AC00903120003D25983173080E
:1032F0002300AC00903120003D2598317408230054
:10330000AC00903120003D25983175082300AC00B9
:10331000903120003D25983176082300AC00903193
:1033200020003D2598317B082300AC00903120001F
:103330003D2598317C082300AC00903120003D25CC
:1033400098317D082300AC00903120003D25983154
:103350007E082300AC00903120003D2598312300E9
:103360002508AC00903120003D2598310230230023
:10337000A900FA30D80080312000A821983123001C
:10338000A90BB92980312000BE21983180318D26CA
:1033900098319831CA2D3D08203C031D3F2A230057
:1033A000C301C201C101C0018031200098239831BE
:1033B0002300C801C701C601C5012000440823003D
:1033C000C90080312000532498312300C801C7016F
:1033D000C6010130C50020003E082300C90080312D
:1033E0002000532498312300C801C701C6010230D0
:1033F000C50020003F082300C9008031200053246D
:1034000098312300C801C701C6010330C500200060
:1034100040082300C9008031200053249831230044
:10342000C801C701C6010430C500200041082300BF
:10343000C90080312000532498312300C801C701FE
:10344000C6010530C500200042082300C9008031B4
:103450002000532498312300C801C701C60106305B
:10346000C500200043082300C900803120005324F8
:10347000983188314722983180318D2698319831A2
:10348000CB2DA80121008D1322008D1723009F153D
:10349000A0309B0001309C00A6309E0090309D0023
:1034A00021008D1122008D1521008D1022008D1418
:1034B00021000F178F130F1222000F1224009512F4
:1034C00040309400093092002A30950022009D126D
:1034D0009D111D1221008E120E168E112000AF01BB
:1034E000AE01AD01AC01B301B201B101B001B40153
:1034F000B801B701B601B5015130B900C8012100CA
:10350000AB01AA01F1012300A401A301A201A101C1
:10351000F201F301F401F501F601FB01FC01FD01EB
:10352000FE01A5010130A600A7018C018D018E01CD
:103530008F019001220092019101B02A0E34603473
:103540001A34003401342034C934AA340E34C0345F
:10355000003401348034BB341834C03400340034B7
:103560001A3085009E30840085171200F700003A5B
:103570000319CA2A1200F800F81BC22A3F39870033
:1035800012008600781B1200781F12001E00F70B35
:10359000C42AB52AC0302300910000309200803147
:1035A00020003E21983180317C299831253021003E
:1035B000970014302300A900FA30D8008031200091
:1035C000A82198312300A90BDC2A80312000BE21DC
:1035D00098318031412A98317908AB007808AA00E7
:1035E00001302300B000B1018031200077229831F2
:1035F0008031F5229831CF302300910000309200C5
:10360000803120003E2198316400D33023009100A6
:1036100000309200803120003E219831220067085E
:10362000773C031D212B2300A7080319192B220027
:10363000212B77302000B40001302300A600A70022
:103640002200E708031D302B2000B40101302300C5
:10365000A600A7012000AF01AE01AD01AC01220020
:103660006708353C031D3C2B35302000B400AF010A
:10367000AE01AD01AC01220020003408773C031DEF
:10368000E12B2300260B9F2B220068082000AF00AF
:10369000220069082000AE0022006A082000AD0068
:1036A00022006B082000AC0022006C082000B30050
:1036B00022006D082000B20022006E082000B10038
:1036C00022006F082000B00002302300B00001305B
:1036D000B10080312000772298310C302300A900FE
:1036E000FA30D80080312000A82198312300A90B9E
:1036F000702B20002F082300B50020002E08230087
:10370000B40020002D082300B30020002C08230063
:10371000B200200033082300B90020003208230043
:10372000B800200031082300B70020003008230033
:10373000B60080312000B12498312300A6018031E9
:1037400020001325983104302300A900FA30D80056
:1037500080312000A82198312300A90BA62B20003E
:103760002F082300B40020002E082300B3002000FF
:103770002D082300B20020002C082300B100B8015E
:10378000B701B601B501BC01BB01BA010530B900F2
:103790000130BD0088312000002098310230230024
:1037A000A900FA30D80080312000A82198312300E8
:1037B000A90BD12B803120008D2698318031BE217C
:1037C00098313408353C031DB82C220068082000CD
:1037D000AF00220069082000AE0022006A08200025
:1037E000AD0022006B082000AC0022006C08200015
:1037F000B80022006D082000B70022006E082000EB
:10380000B60022006F082000B50038082300E3004E
:10381000200037082300E200200036082300E100E2
:10382000200035082300E000E701E601E501200063
:1038300039082300E40080312000292598317A08D6
:10384000B3007908B2007808B1007708B000023000
:103850002300B0000130B100803120007722983180
:103860000C302300A900FA30D80080312000A821B4
:1038700098312300A90B332C20002F082300B5001A
:1038800020002E082300B40020002D082300B300E0
:1038900020002C082300B200200033082300B900C8
:1038A000200032082300B800200031082300B700B0
:1038B000200030082300B60080312000B124983168
:1038C00080311325983104302300A900FA30D80044
:1038D00080312000A82198312300A90B662C2000FC
:1038E0002F082300B40020002E082300B30020007E
:1038F0002D082300B20020002C082300B100B801DD
:10390000B701B601B501200038082300BC00200033
:1039100037082300BB00200036082300BA0020002F
:1039200035082300B9000130BD0088312000002097
:10393000983102302300A900FA30D80080312000ED
:10394000A82198312300A90B9C2C803120008D26C2
:1039500098318031BE219831AF01AE01AD01AC018B
:10396000B801B701B601B501B301B201B101B001AF
:1039700064008031BE219831DF3023009100003097
:103980009200803120003E2198312300A8012808B0
:10399000273C031CF22D80312000B22E9831E330F9
:1039A000230091000030920003101130A9008831EB
:1039B0002000012298313A082300D9005730DA005C
:1039C000803120006826983120302300DB008031D0
:1039D0002000182198310D302300DB0080312000B9
:1039E000182198310A302300DB0080312000182193
:1039F00098317008AA3C0319012D7008BB3C031DC7
:103A00001A2D3C08903C031D1A2DEF302300910025
:103A100000309200803120003E2198318031C92F42
:103A20009831F43023009100003092008031200062
:103A30003E219831F93023009100003092000310AC
:103A40000430A90088312000012298312200460864
:103A50002300D9005730DA008031200068269831E1
:103A6000220045082300D9005730DA0080312000B9
:103A700068269831FC302300910000309200031436
:103A80000530A90088312000012298312200480821
:103A90002300D9005730DA008031200068269831A1
:103AA000220047082300D9005730DA008031200077
:103AB000682698310D302300DB008031200018216A
:103AC00098310A302300DB00803120001821983122
:103AD000220047084502031DD62D48084602031D53
:103AE000D62D7008AA3C03197D2D7008BB3C031924
:103AF0007D2D7008593C031DD62D20003C08AA3CA2
:103B0000031D852D8831892B9831023023009100C7
:103B100001309200803120003E2198318831B02B55
:103B200098318831392C98318831552E9831883127
:103B3000962E983188310B2F98318831612F98312A
:103B40009031D02998319031BC2A983190317D2B19
:103B500098319031C22B98319031252C98313D0805
:103B60002300D9005730DA008031200068269831D0
:103B70000A302300DB0080312000182198310D30FD
:103B80002300DB00803120001821983190315A2C1D
:103B900098310028CB290B3023009100013092008E
:103BA000803120003E219831DF2D22001330230088
:103BB000910001309200803120003E219831A8010F
:103BC00080318D26983108302300A900FA30D800C2
:103BD00080312000A82198312300A90BE62D640034
:0A3BE000A80AC72C2000E92A6300A0
:020000040001F9
:04000E00C23FFF1ED0
:00000001FF
;PIC16F1789
;CRC=91F4  CREATED="09-9-21 09:54"
